{
  "contractName": "Contamination",
  "abi": [
    {
      "constant": true,
      "inputs": [],
      "name": "totalAmountAvailableForOwner",
      "outputs": [
        {
          "name": "",
          "type": "uint256"
        }
      ],
      "payable": false,
      "stateMutability": "view",
      "type": "function"
    },
    {
      "constant": true,
      "inputs": [
        {
          "name": "",
          "type": "uint256"
        }
      ],
      "name": "companies",
      "outputs": [
        {
          "name": "companyName",
          "type": "string"
        },
        {
          "name": "active",
          "type": "bool"
        },
        {
          "name": "initialDeposit",
          "type": "uint256"
        },
        {
          "name": "currentDeposit",
          "type": "uint256"
        },
        {
          "name": "lastPollutionDate",
          "type": "uint32"
        },
        {
          "name": "totalPollutionAlerts",
          "type": "uint32"
        },
        {
          "name": "sensor",
          "type": "address"
        }
      ],
      "payable": false,
      "stateMutability": "view",
      "type": "function"
    },
    {
      "constant": false,
      "inputs": [],
      "name": "renounceOwnership",
      "outputs": [],
      "payable": false,
      "stateMutability": "nonpayable",
      "type": "function"
    },
    {
      "constant": true,
      "inputs": [
        {
          "name": "",
          "type": "address"
        }
      ],
      "name": "companyToOwner",
      "outputs": [
        {
          "name": "",
          "type": "uint256"
        }
      ],
      "payable": false,
      "stateMutability": "view",
      "type": "function"
    },
    {
      "constant": true,
      "inputs": [],
      "name": "owner",
      "outputs": [
        {
          "name": "",
          "type": "address"
        }
      ],
      "payable": false,
      "stateMutability": "view",
      "type": "function"
    },
    {
      "constant": true,
      "inputs": [],
      "name": "isOwner",
      "outputs": [
        {
          "name": "",
          "type": "bool"
        }
      ],
      "payable": false,
      "stateMutability": "view",
      "type": "function"
    },
    {
      "constant": false,
      "inputs": [
        {
          "name": "newOwner",
          "type": "address"
        }
      ],
      "name": "transferOwnership",
      "outputs": [],
      "payable": false,
      "stateMutability": "nonpayable",
      "type": "function"
    },
    {
      "anonymous": false,
      "inputs": [
        {
          "indexed": false,
          "name": "_companyAddress",
          "type": "address"
        },
        {
          "indexed": false,
          "name": "_pollutionType",
          "type": "string"
        },
        {
          "indexed": false,
          "name": "_current",
          "type": "uint256"
        },
        {
          "indexed": false,
          "name": "currentDeposit",
          "type": "uint256"
        },
        {
          "indexed": false,
          "name": "totalAmountAvailableForOwner",
          "type": "uint256"
        }
      ],
      "name": "UpdatedPollutionData",
      "type": "event"
    },
    {
      "anonymous": false,
      "inputs": [
        {
          "indexed": true,
          "name": "previousOwner",
          "type": "address"
        },
        {
          "indexed": true,
          "name": "newOwner",
          "type": "address"
        }
      ],
      "name": "OwnershipTransferred",
      "type": "event"
    },
    {
      "constant": false,
      "inputs": [
        {
          "name": "_companyName",
          "type": "string"
        }
      ],
      "name": "registerCompany",
      "outputs": [
        {
          "name": "",
          "type": "bool"
        }
      ],
      "payable": true,
      "stateMutability": "payable",
      "type": "function"
    },
    {
      "constant": false,
      "inputs": [
        {
          "name": "_companyAddress",
          "type": "address"
        },
        {
          "name": "_sensorAddress",
          "type": "address"
        }
      ],
      "name": "registerSensor",
      "outputs": [],
      "payable": false,
      "stateMutability": "nonpayable",
      "type": "function"
    },
    {
      "constant": false,
      "inputs": [
        {
          "name": "_companyAddress",
          "type": "address"
        }
      ],
      "name": "setCurrentDeposit",
      "outputs": [],
      "payable": true,
      "stateMutability": "payable",
      "type": "function"
    },
    {
      "constant": false,
      "inputs": [
        {
          "name": "_companyAddress",
          "type": "address"
        },
        {
          "name": "amount",
          "type": "uint256"
        }
      ],
      "name": "activateCompany",
      "outputs": [],
      "payable": false,
      "stateMutability": "nonpayable",
      "type": "function"
    },
    {
      "constant": false,
      "inputs": [
        {
          "name": "_companyAddress",
          "type": "address"
        },
        {
          "name": "_pollutionType",
          "type": "string"
        },
        {
          "name": "_warning",
          "type": "uint256"
        },
        {
          "name": "_penalty",
          "type": "uint256"
        }
      ],
      "name": "setPollutionThreshold",
      "outputs": [],
      "payable": false,
      "stateMutability": "nonpayable",
      "type": "function"
    },
    {
      "constant": true,
      "inputs": [
        {
          "name": "_companyAddress",
          "type": "address"
        }
      ],
      "name": "getCompanyInfo",
      "outputs": [
        {
          "name": "",
          "type": "string"
        },
        {
          "name": "",
          "type": "bool"
        },
        {
          "name": "",
          "type": "address"
        }
      ],
      "payable": false,
      "stateMutability": "view",
      "type": "function"
    },
    {
      "constant": true,
      "inputs": [],
      "name": "getRegisteredCompaniesCount",
      "outputs": [
        {
          "name": "",
          "type": "uint256"
        }
      ],
      "payable": false,
      "stateMutability": "view",
      "type": "function"
    },
    {
      "constant": false,
      "inputs": [
        {
          "name": "_companyAddress",
          "type": "address"
        },
        {
          "name": "_pollutionType",
          "type": "string"
        },
        {
          "name": "_current",
          "type": "uint256"
        }
      ],
      "name": "setCurrentPollution",
      "outputs": [],
      "payable": false,
      "stateMutability": "nonpayable",
      "type": "function"
    },
    {
      "constant": false,
      "inputs": [
        {
          "name": "amountToRetrieve",
          "type": "uint256"
        }
      ],
      "name": "transferFundsToOwner",
      "outputs": [],
      "payable": true,
      "stateMutability": "payable",
      "type": "function"
    }
  ],
  "bytecode": "0x6080604052336000806101000a81548173ffffffffffffffffffffffffffffffffffffffff021916908373ffffffffffffffffffffffffffffffffffffffff1602179055506000809054906101000a900473ffffffffffffffffffffffffffffffffffffffff1673ffffffffffffffffffffffffffffffffffffffff16600073ffffffffffffffffffffffffffffffffffffffff167f8be0079c531659141344cd1fd0a4f28419497f9722a3daafe3b4186f6b6457e060405160405180910390a361226b806100cf6000396000f3006080604052600436106100e5576000357c0100000000000000000000000000000000000000000000000000000000900463ffffffff168062544194146100ea578063076c31981461013057806320ea8f601461019f5780632813d19d146101ca5780632f0a5409146102e25780633ce7b7a41461032f57806342e12c831461035a5780636ab8bf1a14610454578063715018a61461048a5780637f0605d4146104a15780638da5cb5b146104f85780638f32d59b1461054f578063af6738eb1461057e578063cd3d3fa41461059e578063ec7aed4a14610601578063f2fde38b14610666575b600080fd5b6101166004803603810190808035906020019082018035906020019190919293919293905050506106a9565b604051808215151515815260200191505060405180910390f35b34801561013c57600080fd5b5061019d600480360381019080803573ffffffffffffffffffffffffffffffffffffffff1690602001909291908035906020019082018035906020019190919293919293908035906020019092919080359060200190929190505050610937565b005b3480156101ab57600080fd5b506101b4610ba8565b6040518082815260200191505060405180910390f35b3480156101d657600080fd5b506101f560048036038101908080359060200190929190505050610bae565b6040518080602001881515151581526020018781526020018681526020018563ffffffff1663ffffffff1681526020018463ffffffff1663ffffffff1681526020018373ffffffffffffffffffffffffffffffffffffffff1673ffffffffffffffffffffffffffffffffffffffff168152602001828103825289818151815260200191508051906020019080838360005b838110156102a1578082015181840152602081019050610286565b50505050905090810190601f1680156102ce5780820380516001836020036101000a031916815260200191505b509850505050505050505060405180910390f35b3480156102ee57600080fd5b5061032d600480360381019080803573ffffffffffffffffffffffffffffffffffffffff16906020019092919080359060200190929190505050610ce4565b005b34801561033b57600080fd5b506103446110b4565b6040518082815260200191505060405180910390f35b34801561036657600080fd5b5061039b600480360381019080803573ffffffffffffffffffffffffffffffffffffffff1690602001909291905050506110c1565b6040518080602001841515151581526020018373ffffffffffffffffffffffffffffffffffffffff1673ffffffffffffffffffffffffffffffffffffffff168152602001828103825285818151815260200191508051906020019080838360005b838110156104175780820151818401526020810190506103fc565b50505050905090810190601f1680156104445780820380516001836020036101000a031916815260200191505b5094505050505060405180910390f35b610488600480360381019080803573ffffffffffffffffffffffffffffffffffffffff1690602001909291905050506112cb565b005b34801561049657600080fd5b5061049f611604565b005b3480156104ad57600080fd5b506104e2600480360381019080803573ffffffffffffffffffffffffffffffffffffffff1690602001909291905050506116d6565b6040518082815260200191505060405180910390f35b34801561050457600080fd5b5061050d6116ee565b604051808273ffffffffffffffffffffffffffffffffffffffff1673ffffffffffffffffffffffffffffffffffffffff16815260200191505060405180910390f35b34801561055b57600080fd5b50610564611717565b604051808215151515815260200191505060405180910390f35b61059c6004803603810190808035906020019092919050505061176e565b005b3480156105aa57600080fd5b506105ff600480360381019080803573ffffffffffffffffffffffffffffffffffffffff169060200190929190803573ffffffffffffffffffffffffffffffffffffffff16906020019092919050505061185b565b005b34801561060d57600080fd5b50610664600480360381019080803573ffffffffffffffffffffffffffffffffffffffff16906020019092919080359060200190820180359060200191909192939192939080359060200190929190505050611bd6565b005b34801561067257600080fd5b506106a7600480360381019080803573ffffffffffffffffffffffffffffffffffffffff169060200190929190505050611f98565b005b60006106b36120b1565b600080600360003373ffffffffffffffffffffffffffffffffffffffff1673ffffffffffffffffffffffffffffffffffffffff168152602001908152602001600020541415151561076c576040517f08c379a000000000000000000000000000000000000000000000000000000000815260040180806020018281038252600f8152602001807f436f6d70616e792065786973747321000000000000000000000000000000000081525060200191505060405180910390fd5b84848080601f0160208091040260200160405190810160405280939291908181526020018383808284378201915050505050508260000181905250600082602001901515908115158152505034826040018181525050348260600181815250506001600283908060018154018082558091505090600182039060005260206000209060080201600090919290919091506000820151816000019080519060200190610818929190612113565b5060208201518160010160006101000a81548160ff021916908315150217905550604082015181600201556060820151816003015560808201518160070160006101000a81548163ffffffff021916908363ffffffff16021790555060a08201518160070160046101000a81548163ffffffff021916908363ffffffff16021790555060c08201518160070160086101000a81548173ffffffffffffffffffffffffffffffffffffffff021916908373ffffffffffffffffffffffffffffffffffffffff160217905550505003905080600360003373ffffffffffffffffffffffffffffffffffffffff1673ffffffffffffffffffffffffffffffffffffffff1681526020019081526020016000208190555060019250505092915050565b6000610941611717565b151561094c57600080fd5b6002600360008873ffffffffffffffffffffffffffffffffffffffff1673ffffffffffffffffffffffffffffffffffffffff1681526020019081526020016000205481548110151561099a57fe5b9060005260206000209060080201905082816004018686604051808383808284378201915050925050509081526020016040518091039020819055508181600501868660405180838380828437820191505092505050908152602001604051809103902081905550806002600360008973ffffffffffffffffffffffffffffffffffffffff1673ffffffffffffffffffffffffffffffffffffffff16815260200190815260200160002054815481101515610a5157fe5b906000526020600020906008020160008201816000019080546001816001161561010002031660029004610a86929190612193565b506001820160009054906101000a900460ff168160010160006101000a81548160ff02191690831515021790555060028201548160020155600382015481600301556007820160009054906101000a900463ffffffff168160070160006101000a81548163ffffffff021916908363ffffffff1602179055506007820160049054906101000a900463ffffffff168160070160046101000a81548163ffffffff021916908363ffffffff1602179055506007820160089054906101000a900473ffffffffffffffffffffffffffffffffffffffff168160070160086101000a81548173ffffffffffffffffffffffffffffffffffffffff021916908373ffffffffffffffffffffffffffffffffffffffff160217905550905050505050505050565b60015481565b600281815481101515610bbd57fe5b9060005260206000209060080201600091509050806000018054600181600116156101000203166002900480601f016020809104026020016040519081016040528092919081815260200182805460018160011615610100020316600290048015610c695780601f10610c3e57610100808354040283529160200191610c69565b820191906000526020600020905b815481529060010190602001808311610c4c57829003601f168201915b5050505050908060010160009054906101000a900460ff16908060020154908060030154908060070160009054906101000a900463ffffffff16908060070160049054906101000a900463ffffffff16908060070160089054906101000a900473ffffffffffffffffffffffffffffffffffffffff16905087565b610cec6120b1565b610cf4611717565b1515610cff57600080fd5b6002600360008573ffffffffffffffffffffffffffffffffffffffff1673ffffffffffffffffffffffffffffffffffffffff16815260200190815260200160002054815481101515610d4d57fe5b906000526020600020906008020160e06040519081016040529081600082018054600181600116156101000203166002900480601f016020809104026020016040519081016040528092919081815260200182805460018160011615610100020316600290048015610e005780601f10610dd557610100808354040283529160200191610e00565b820191906000526020600020905b815481529060010190602001808311610de357829003601f168201915b505050505081526020016001820160009054906101000a900460ff1615151515815260200160028201548152602001600382015481526020016007820160009054906101000a900463ffffffff1663ffffffff1663ffffffff1681526020016007820160049054906101000a900463ffffffff1663ffffffff1663ffffffff1681526020016007820160089054906101000a900473ffffffffffffffffffffffffffffffffffffffff1673ffffffffffffffffffffffffffffffffffffffff1673ffffffffffffffffffffffffffffffffffffffff1681525050905081816060015110151515610f58576040517f08c379a000000000000000000000000000000000000000000000000000000000815260040180806020018281038252601e8152602001807f436f6d70616e7920646f6e74206861766520656e6f7567682066756e6473000081525060200191505060405180910390fd5b6001816020019015159081151581525050806002600360008673ffffffffffffffffffffffffffffffffffffffff1673ffffffffffffffffffffffffffffffffffffffff16815260200190815260200160002054815481101515610fb857fe5b90600052602060002090600802016000820151816000019080519060200190610fe2929190612113565b5060208201518160010160006101000a81548160ff021916908315150217905550604082015181600201556060820151816003015560808201518160070160006101000a81548163ffffffff021916908363ffffffff16021790555060a08201518160070160046101000a81548163ffffffff021916908363ffffffff16021790555060c08201518160070160086101000a81548173ffffffffffffffffffffffffffffffffffffffff021916908373ffffffffffffffffffffffffffffffffffffffff160217905550905050505050565b6000600280549050905090565b60606000806110ce6120b1565b6002600360008773ffffffffffffffffffffffffffffffffffffffff1673ffffffffffffffffffffffffffffffffffffffff1681526020019081526020016000205481548110151561111c57fe5b906000526020600020906008020160e06040519081016040529081600082018054600181600116156101000203166002900480601f0160208091040260200160405190810160405280929190818152602001828054600181600116156101000203166002900480156111cf5780601f106111a4576101008083540402835291602001916111cf565b820191906000526020600020905b8154815290600101906020018083116111b257829003601f168201915b505050505081526020016001820160009054906101000a900460ff1615151515815260200160028201548152602001600382015481526020016007820160009054906101000a900463ffffffff1663ffffffff1663ffffffff1681526020016007820160049054906101000a900463ffffffff1663ffffffff1663ffffffff1681526020016007820160089054906101000a900473ffffffffffffffffffffffffffffffffffffffff1673ffffffffffffffffffffffffffffffffffffffff1673ffffffffffffffffffffffffffffffffffffffff16815250509050806000015181602001518260c00151829250935093509350509193909250565b6112d36120b1565b6002600360008473ffffffffffffffffffffffffffffffffffffffff1673ffffffffffffffffffffffffffffffffffffffff1681526020019081526020016000205481548110151561132157fe5b906000526020600020906008020160e06040519081016040529081600082018054600181600116156101000203166002900480601f0160208091040260200160405190810160405280929190818152602001828054600181600116156101000203166002900480156113d45780601f106113a9576101008083540402835291602001916113d4565b820191906000526020600020905b8154815290600101906020018083116113b757829003601f168201915b505050505081526020016001820160009054906101000a900460ff1615151515815260200160028201548152602001600382015481526020016007820160009054906101000a900463ffffffff1663ffffffff1663ffffffff1681526020016007820160049054906101000a900463ffffffff1663ffffffff1663ffffffff1681526020016007820160089054906101000a900473ffffffffffffffffffffffffffffffffffffffff1673ffffffffffffffffffffffffffffffffffffffff1673ffffffffffffffffffffffffffffffffffffffff1681525050905034816060018181525050806002600360008573ffffffffffffffffffffffffffffffffffffffff1673ffffffffffffffffffffffffffffffffffffffff1681526020019081526020016000205481548110151561150957fe5b90600052602060002090600802016000820151816000019080519060200190611533929190612113565b5060208201518160010160006101000a81548160ff021916908315150217905550604082015181600201556060820151816003015560808201518160070160006101000a81548163ffffffff021916908363ffffffff16021790555060a08201518160070160046101000a81548163ffffffff021916908363ffffffff16021790555060c08201518160070160086101000a81548173ffffffffffffffffffffffffffffffffffffffff021916908373ffffffffffffffffffffffffffffffffffffffff1602179055509050505050565b61160c611717565b151561161757600080fd5b600073ffffffffffffffffffffffffffffffffffffffff166000809054906101000a900473ffffffffffffffffffffffffffffffffffffffff1673ffffffffffffffffffffffffffffffffffffffff167f8be0079c531659141344cd1fd0a4f28419497f9722a3daafe3b4186f6b6457e060405160405180910390a360008060006101000a81548173ffffffffffffffffffffffffffffffffffffffff021916908373ffffffffffffffffffffffffffffffffffffffff160217905550565b60036020528060005260406000206000915090505481565b60008060009054906101000a900473ffffffffffffffffffffffffffffffffffffffff16905090565b60008060009054906101000a900473ffffffffffffffffffffffffffffffffffffffff1673ffffffffffffffffffffffffffffffffffffffff163373ffffffffffffffffffffffffffffffffffffffff1614905090565b611776611717565b151561178157600080fd5b600154811115156117fa576040517f08c379a000000000000000000000000000000000000000000000000000000000815260040180806020018281038252601a8152602001807f596f7520646f6e74206861766520656e6f7567682066756e647300000000000081525060200191505060405180910390fd5b6118026116ee565b73ffffffffffffffffffffffffffffffffffffffff166108fc829081150290604051600060405180830381858888f19350505050158015611847573d6000803e3d6000fd5b508060016000828254039250508190555050565b6118636120b1565b61186b611717565b151561187657600080fd5b6002600360008573ffffffffffffffffffffffffffffffffffffffff1673ffffffffffffffffffffffffffffffffffffffff168152602001908152602001600020548154811015156118c457fe5b906000526020600020906008020160e06040519081016040529081600082018054600181600116156101000203166002900480601f0160208091040260200160405190810160405280929190818152602001828054600181600116156101000203166002900480156119775780601f1061194c57610100808354040283529160200191611977565b820191906000526020600020905b81548152906001019060200180831161195a57829003601f168201915b505050505081526020016001820160009054906101000a900460ff1615151515815260200160028201548152602001600382015481526020016007820160009054906101000a900463ffffffff1663ffffffff1663ffffffff1681526020016007820160049054906101000a900463ffffffff1663ffffffff1663ffffffff1681526020016007820160089054906101000a900473ffffffffffffffffffffffffffffffffffffffff1673ffffffffffffffffffffffffffffffffffffffff1673ffffffffffffffffffffffffffffffffffffffff16815250509050818160c0019073ffffffffffffffffffffffffffffffffffffffff16908173ffffffffffffffffffffffffffffffffffffffff1681525050806002600360008673ffffffffffffffffffffffffffffffffffffffff1673ffffffffffffffffffffffffffffffffffffffff16815260200190815260200160002054815481101515611ada57fe5b90600052602060002090600802016000820151816000019080519060200190611b04929190612113565b5060208201518160010160006101000a81548160ff021916908315150217905550604082015181600201556060820151816003015560808201518160070160006101000a81548163ffffffff021916908363ffffffff16021790555060a08201518160070160046101000a81548163ffffffff021916908363ffffffff16021790555060c08201518160070160086101000a81548173ffffffffffffffffffffffffffffffffffffffff021916908373ffffffffffffffffffffffffffffffffffffffff160217905550905050505050565b6000806002600360008873ffffffffffffffffffffffffffffffffffffffff1673ffffffffffffffffffffffffffffffffffffffff16815260200190815260200160002054815481101515611c2757fe5b906000526020600020906008020191508282600601868660405180838380828437820191505092505050908152602001604051809103902081905550428260070160006101000a81548163ffffffff021916908363ffffffff16021790555081600701600481819054906101000a900463ffffffff168092919060010191906101000a81548163ffffffff021916908363ffffffff1602179055505081600501858560405180838380828437820191505092505050908152602001604051809103902054826006018686604051808383808284378201915050925050509081526020016040518091039020541115611d4f5760648260020154811515611d2957fe5b049050808260030160008282540392505081905550806001600082825401925050819055505b816002600360008973ffffffffffffffffffffffffffffffffffffffff1673ffffffffffffffffffffffffffffffffffffffff16815260200190815260200160002054815481101515611d9e57fe5b906000526020600020906008020160008201816000019080546001816001161561010002031660029004611dd3929190612193565b506001820160009054906101000a900460ff168160010160006101000a81548160ff02191690831515021790555060028201548160020155600382015481600301556007820160009054906101000a900463ffffffff168160070160006101000a81548163ffffffff021916908363ffffffff1602179055506007820160049054906101000a900463ffffffff168160070160046101000a81548163ffffffff021916908363ffffffff1602179055506007820160089054906101000a900473ffffffffffffffffffffffffffffffffffffffff168160070160086101000a81548173ffffffffffffffffffffffffffffffffffffffff021916908373ffffffffffffffffffffffffffffffffffffffff1602179055509050507fb607fb123730aea222f7f9a96c455d71f296c42356953c3c81f2208353fe1c51868686868660030154600154604051808773ffffffffffffffffffffffffffffffffffffffff1673ffffffffffffffffffffffffffffffffffffffff168152602001806020018581526020018481526020018381526020018281038252878782818152602001925080828437820191505097505050505050505060405180910390a1505050505050565b611fa0611717565b1515611fab57600080fd5b611fb481611fb7565b50565b600073ffffffffffffffffffffffffffffffffffffffff168173ffffffffffffffffffffffffffffffffffffffff1614151515611ff357600080fd5b8073ffffffffffffffffffffffffffffffffffffffff166000809054906101000a900473ffffffffffffffffffffffffffffffffffffffff1673ffffffffffffffffffffffffffffffffffffffff167f8be0079c531659141344cd1fd0a4f28419497f9722a3daafe3b4186f6b6457e060405160405180910390a3806000806101000a81548173ffffffffffffffffffffffffffffffffffffffff021916908373ffffffffffffffffffffffffffffffffffffffff16021790555050565b60e060405190810160405280606081526020016000151581526020016000815260200160008152602001600063ffffffff168152602001600063ffffffff168152602001600073ffffffffffffffffffffffffffffffffffffffff1681525090565b828054600181600116156101000203166002900490600052602060002090601f016020900481019282601f1061215457805160ff1916838001178555612182565b82800160010185558215612182579182015b82811115612181578251825591602001919060010190612166565b5b50905061218f919061221a565b5090565b828054600181600116156101000203166002900490600052602060002090601f016020900481019282601f106121cc5780548555612209565b8280016001018555821561220957600052602060002091601f016020900482015b828111156122085782548255916001019190600101906121ed565b5b509050612216919061221a565b5090565b61223c91905b80821115612238576000816000905550600101612220565b5090565b905600a165627a7a72305820cf371a6881ff272d5e351c5b55dae2e904f19cc8e68d69d5f81e3953ac436eca0029",
  "source": "// solium-disable linebreak-style\npragma solidity ^0.4.19;\n\nimport \"../node_modules/openzeppelin-solidity/contracts/ownership/Ownable.sol\";\n\ncontract Contamination is Ownable{\n   \n    uint public totalAmountAvailableForOwner;\n    \n    event UpdatedPollutionData(\n        address _companyAddress, \n        string _pollutionType, \n        uint _current, \n        uint currentDeposit, \n        uint totalAmountAvailableForOwner\n    );\n\n    struct Company{    \n        string companyName;\n        bool active;\n        uint initialDeposit;\n        uint currentDeposit;\n        mapping(string => uint) warning;\n        mapping(string => uint) penalty;\n        mapping(string => uint) current;\n        uint32 lastPollutionDate;\n        uint32 totalPollutionAlerts;\n        address sensor;\n    }\n\n    Company[] public companies;\n    mapping (address => uint) public companyToOwner;\n\n    function registerCompany(string _companyName) external payable returns (bool){\n        require(companyToOwner[msg.sender] != 0, \"Company exists!\");\n        Company memory company;\n        company.companyName = _companyName;\n        company.active = false;\n        company.initialDeposit = msg.value;\n        company.currentDeposit = msg.value;\n\n        uint id = companies.push(company) - 1;\n        companyToOwner[msg.sender] = id;\n\n        return true;\n    }\n\n    function registerSensor(address _companyAddress, address _sensorAddress) external onlyOwner{\n        Company memory company = companies[companyToOwner[_companyAddress]];\n        company.sensor = _sensorAddress;\n        companies[companyToOwner[_companyAddress]] = company;\n    }\n\n    function setCurrentDeposit(address _companyAddress) external payable{\n        Company memory company = companies[companyToOwner[_companyAddress]];\n        company.currentDeposit = msg.value;\n        companies[companyToOwner[_companyAddress]] = company;\n    }\n\n    function activateCompany(address _companyAddress, uint amount) external onlyOwner{\n        Company memory company = companies[companyToOwner[_companyAddress]];\n        require(company.currentDeposit >= amount,\"Company dont have enough funds\");\n        company.active = true;\n        companies[companyToOwner[_companyAddress]] = company;\n    }\n\n    function setPollutionThreshold(address _companyAddress, string _pollutionType, uint _warning, uint _penalty) external onlyOwner{\n        Company storage company = companies[companyToOwner[_companyAddress]];\n        company.warning[_pollutionType] = _warning;\n        company.penalty[_pollutionType] = _penalty;\n        companies[companyToOwner[_companyAddress]] = company;//Verificar si es necesario\n    }\n    \n    function getCompanyInfo(address _companyAddress) external view returns (string,bool,address){\n        Company memory company = companies[companyToOwner[_companyAddress]];\n        return (company.companyName, company.active, company.sensor);\n    }\n\n    function getRegisteredCompaniesCount() external view returns (uint) {\n        return companies.length;\n    }\n\n    function setCurrentPollution(address _companyAddress, string _pollutionType, uint _current) external {\n        Company storage company = companies[companyToOwner[_companyAddress]];\n        company.current[_pollutionType] = _current;\n        company.lastPollutionDate = uint32(now);\n        company.totalPollutionAlerts++;\n        if(company.current[_pollutionType] > company.penalty[_pollutionType]){\n            uint penalty = company.initialDeposit/100;// (company.current[_pollutionType] / company.penalty[_pollutionType])**company.totalPollutionAlerts;\n            company.currentDeposit -= penalty;\n            totalAmountAvailableForOwner += penalty;\n        }\n        companies[companyToOwner[_companyAddress]] = company;\n\n        //enviar evento\n        emit UpdatedPollutionData(_companyAddress, _pollutionType, _current, company.currentDeposit, totalAmountAvailableForOwner);\n    }\n\n    function transferFundsToOwner(uint amountToRetrieve) external payable onlyOwner{\n        require(amountToRetrieve > totalAmountAvailableForOwner,\"You dont have enough funds\");\n        owner().transfer(amountToRetrieve);  \n        totalAmountAvailableForOwner -= amountToRetrieve;\n    }    \n}",
  "sourcePath": "/Users/bruno.sanz.local/Salamancos/contracts/Contamination.sol",
  "compiler": {
    "name": "solc",
    "version": "0.4.24+commit.e67f0147.Emscripten.clang"
  },
  "schemaVersion": "2.0.1",
  "updatedAt": "2018-11-17T04:00:09.757Z"
}