{
  "contractName": "Contamination",
  "abi": [
    {
      "constant": true,
      "inputs": [],
      "name": "totalAmountAvailableForOwner",
      "outputs": [
        {
          "name": "",
          "type": "uint256"
        }
      ],
      "payable": false,
      "stateMutability": "view",
      "type": "function"
    },
    {
      "constant": true,
      "inputs": [
        {
          "name": "",
          "type": "uint256"
        }
      ],
      "name": "companies",
      "outputs": [
        {
          "name": "companyName",
          "type": "string"
        },
        {
          "name": "active",
          "type": "bool"
        },
        {
          "name": "initialDeposit",
          "type": "uint256"
        },
        {
          "name": "currentDeposit",
          "type": "uint256"
        },
        {
          "name": "lastPollutionDate",
          "type": "uint32"
        },
        {
          "name": "totalPollutionAlerts",
          "type": "uint32"
        },
        {
          "name": "sensor",
          "type": "address"
        }
      ],
      "payable": false,
      "stateMutability": "view",
      "type": "function"
    },
    {
      "constant": false,
      "inputs": [],
      "name": "renounceOwnership",
      "outputs": [],
      "payable": false,
      "stateMutability": "nonpayable",
      "type": "function"
    },
    {
      "constant": true,
      "inputs": [
        {
          "name": "",
          "type": "address"
        }
      ],
      "name": "companyToOwner",
      "outputs": [
        {
          "name": "",
          "type": "uint256"
        }
      ],
      "payable": false,
      "stateMutability": "view",
      "type": "function"
    },
    {
      "constant": true,
      "inputs": [],
      "name": "owner",
      "outputs": [
        {
          "name": "",
          "type": "address"
        }
      ],
      "payable": false,
      "stateMutability": "view",
      "type": "function"
    },
    {
      "constant": true,
      "inputs": [],
      "name": "isOwner",
      "outputs": [
        {
          "name": "",
          "type": "bool"
        }
      ],
      "payable": false,
      "stateMutability": "view",
      "type": "function"
    },
    {
      "constant": false,
      "inputs": [
        {
          "name": "newOwner",
          "type": "address"
        }
      ],
      "name": "transferOwnership",
      "outputs": [],
      "payable": false,
      "stateMutability": "nonpayable",
      "type": "function"
    },
    {
      "anonymous": false,
      "inputs": [
        {
          "indexed": true,
          "name": "previousOwner",
          "type": "address"
        },
        {
          "indexed": true,
          "name": "newOwner",
          "type": "address"
        }
      ],
      "name": "OwnershipTransferred",
      "type": "event"
    },
    {
      "constant": false,
      "inputs": [
        {
          "name": "_companyName",
          "type": "string"
        }
      ],
      "name": "registerCompany",
      "outputs": [
        {
          "name": "",
          "type": "bool"
        }
      ],
      "payable": true,
      "stateMutability": "payable",
      "type": "function"
    },
    {
      "constant": false,
      "inputs": [
        {
          "name": "_companyAddress",
          "type": "address"
        },
        {
          "name": "_sensorAddress",
          "type": "address"
        }
      ],
      "name": "registerSensor",
      "outputs": [],
      "payable": false,
      "stateMutability": "nonpayable",
      "type": "function"
    },
    {
      "constant": false,
      "inputs": [
        {
          "name": "_companyAddress",
          "type": "address"
        }
      ],
      "name": "setCurrentDeposit",
      "outputs": [],
      "payable": true,
      "stateMutability": "payable",
      "type": "function"
    },
    {
      "constant": false,
      "inputs": [
        {
          "name": "_companyAddress",
          "type": "address"
        },
        {
          "name": "amount",
          "type": "uint256"
        }
      ],
      "name": "activateCompany",
      "outputs": [],
      "payable": false,
      "stateMutability": "nonpayable",
      "type": "function"
    },
    {
      "constant": false,
      "inputs": [
        {
          "name": "_companyAddress",
          "type": "address"
        },
        {
          "name": "_pollutionType",
          "type": "string"
        },
        {
          "name": "_warning",
          "type": "uint256"
        },
        {
          "name": "_penalty",
          "type": "uint256"
        }
      ],
      "name": "setPollutionThreshold",
      "outputs": [],
      "payable": false,
      "stateMutability": "nonpayable",
      "type": "function"
    },
    {
      "constant": true,
      "inputs": [
        {
          "name": "_companyAddress",
          "type": "address"
        }
      ],
      "name": "getCompanyInfo",
      "outputs": [
        {
          "name": "",
          "type": "string"
        },
        {
          "name": "",
          "type": "bool"
        },
        {
          "name": "",
          "type": "address"
        }
      ],
      "payable": false,
      "stateMutability": "view",
      "type": "function"
    },
    {
      "constant": false,
      "inputs": [
        {
          "name": "_companyAddress",
          "type": "address"
        },
        {
          "name": "_pollutionType",
          "type": "string"
        },
        {
          "name": "_current",
          "type": "uint256"
        }
      ],
      "name": "setCurrentPollution",
      "outputs": [],
      "payable": false,
      "stateMutability": "nonpayable",
      "type": "function"
    },
    {
      "constant": false,
      "inputs": [
        {
          "name": "amountToRetrieve",
          "type": "uint256"
        }
      ],
      "name": "transferFundsToOwner",
      "outputs": [],
      "payable": true,
      "stateMutability": "payable",
      "type": "function"
    }
  ],
  "bytecode": "0x6080604052336000806101000a81548173ffffffffffffffffffffffffffffffffffffffff021916908373ffffffffffffffffffffffffffffffffffffffff1602179055506000809054906101000a900473ffffffffffffffffffffffffffffffffffffffff1673ffffffffffffffffffffffffffffffffffffffff16600073ffffffffffffffffffffffffffffffffffffffff167f8be0079c531659141344cd1fd0a4f28419497f9722a3daafe3b4186f6b6457e060405160405180910390a3612185806100cf6000396000f3006080604052600436106100da576000357c0100000000000000000000000000000000000000000000000000000000900463ffffffff168062544194146100df578063076c31981461012557806320ea8f60146101945780632813d19d146101bf5780632f0a5409146102d757806342e12c83146103245780636ab8bf1a1461041e578063715018a6146104545780637f0605d41461046b5780638da5cb5b146104c25780638f32d59b14610519578063af6738eb14610548578063cd3d3fa414610568578063ec7aed4a146105cb578063f2fde38b14610630575b600080fd5b61010b600480360381019080803590602001908201803590602001919091929391929390505050610673565b604051808215151515815260200191505060405180910390f35b34801561013157600080fd5b50610192600480360381019080803573ffffffffffffffffffffffffffffffffffffffff1690602001909291908035906020019082018035906020019190919293919293908035906020019092919080359060200190929190505050610901565b005b3480156101a057600080fd5b506101a9610b72565b6040518082815260200191505060405180910390f35b3480156101cb57600080fd5b506101ea60048036038101908080359060200190929190505050610b78565b6040518080602001881515151581526020018781526020018681526020018563ffffffff1663ffffffff1681526020018463ffffffff1663ffffffff1681526020018373ffffffffffffffffffffffffffffffffffffffff1673ffffffffffffffffffffffffffffffffffffffff168152602001828103825289818151815260200191508051906020019080838360005b8381101561029657808201518184015260208101905061027b565b50505050905090810190601f1680156102c35780820380516001836020036101000a031916815260200191505b509850505050505050505060405180910390f35b3480156102e357600080fd5b50610322600480360381019080803573ffffffffffffffffffffffffffffffffffffffff16906020019092919080359060200190929190505050610cae565b005b34801561033057600080fd5b50610365600480360381019080803573ffffffffffffffffffffffffffffffffffffffff16906020019092919050505061107e565b6040518080602001841515151581526020018373ffffffffffffffffffffffffffffffffffffffff1673ffffffffffffffffffffffffffffffffffffffff168152602001828103825285818151815260200191508051906020019080838360005b838110156103e15780820151818401526020810190506103c6565b50505050905090810190601f16801561040e5780820380516001836020036101000a031916815260200191505b5094505050505060405180910390f35b610452600480360381019080803573ffffffffffffffffffffffffffffffffffffffff169060200190929190505050611288565b005b34801561046057600080fd5b506104696115c1565b005b34801561047757600080fd5b506104ac600480360381019080803573ffffffffffffffffffffffffffffffffffffffff169060200190929190505050611693565b6040518082815260200191505060405180910390f35b3480156104ce57600080fd5b506104d76116ab565b604051808273ffffffffffffffffffffffffffffffffffffffff1673ffffffffffffffffffffffffffffffffffffffff16815260200191505060405180910390f35b34801561052557600080fd5b5061052e6116d4565b604051808215151515815260200191505060405180910390f35b6105666004803603810190808035906020019092919050505061172b565b005b34801561057457600080fd5b506105c9600480360381019080803573ffffffffffffffffffffffffffffffffffffffff169060200190929190803573ffffffffffffffffffffffffffffffffffffffff169060200190929190505050611818565b005b3480156105d757600080fd5b5061062e600480360381019080803573ffffffffffffffffffffffffffffffffffffffff16906020019092919080359060200190820180359060200191909192939192939080359060200190929190505050611b93565b005b34801561063c57600080fd5b50610671600480360381019080803573ffffffffffffffffffffffffffffffffffffffff169060200190929190505050611eb2565b005b600061067d611fcb565b600080600360003373ffffffffffffffffffffffffffffffffffffffff1673ffffffffffffffffffffffffffffffffffffffff1681526020019081526020016000205414151515610736576040517f08c379a000000000000000000000000000000000000000000000000000000000815260040180806020018281038252600f8152602001807f436f6d70616e792065786973747321000000000000000000000000000000000081525060200191505060405180910390fd5b84848080601f01602080910402602001604051908101604052809392919081815260200183838082843782019150505050505082600001819052506000826020019015159081151581525050348260400181815250503482606001818152505060016002839080600181540180825580915050906001820390600052602060002090600802016000909192909190915060008201518160000190805190602001906107e292919061202d565b5060208201518160010160006101000a81548160ff021916908315150217905550604082015181600201556060820151816003015560808201518160070160006101000a81548163ffffffff021916908363ffffffff16021790555060a08201518160070160046101000a81548163ffffffff021916908363ffffffff16021790555060c08201518160070160086101000a81548173ffffffffffffffffffffffffffffffffffffffff021916908373ffffffffffffffffffffffffffffffffffffffff160217905550505003905080600360003373ffffffffffffffffffffffffffffffffffffffff1673ffffffffffffffffffffffffffffffffffffffff1681526020019081526020016000208190555060019250505092915050565b600061090b6116d4565b151561091657600080fd5b6002600360008873ffffffffffffffffffffffffffffffffffffffff1673ffffffffffffffffffffffffffffffffffffffff1681526020019081526020016000205481548110151561096457fe5b9060005260206000209060080201905082816004018686604051808383808284378201915050925050509081526020016040518091039020819055508181600501868660405180838380828437820191505092505050908152602001604051809103902081905550806002600360008973ffffffffffffffffffffffffffffffffffffffff1673ffffffffffffffffffffffffffffffffffffffff16815260200190815260200160002054815481101515610a1b57fe5b906000526020600020906008020160008201816000019080546001816001161561010002031660029004610a509291906120ad565b506001820160009054906101000a900460ff168160010160006101000a81548160ff02191690831515021790555060028201548160020155600382015481600301556007820160009054906101000a900463ffffffff168160070160006101000a81548163ffffffff021916908363ffffffff1602179055506007820160049054906101000a900463ffffffff168160070160046101000a81548163ffffffff021916908363ffffffff1602179055506007820160089054906101000a900473ffffffffffffffffffffffffffffffffffffffff168160070160086101000a81548173ffffffffffffffffffffffffffffffffffffffff021916908373ffffffffffffffffffffffffffffffffffffffff160217905550905050505050505050565b60015481565b600281815481101515610b8757fe5b9060005260206000209060080201600091509050806000018054600181600116156101000203166002900480601f016020809104026020016040519081016040528092919081815260200182805460018160011615610100020316600290048015610c335780601f10610c0857610100808354040283529160200191610c33565b820191906000526020600020905b815481529060010190602001808311610c1657829003601f168201915b5050505050908060010160009054906101000a900460ff16908060020154908060030154908060070160009054906101000a900463ffffffff16908060070160049054906101000a900463ffffffff16908060070160089054906101000a900473ffffffffffffffffffffffffffffffffffffffff16905087565b610cb6611fcb565b610cbe6116d4565b1515610cc957600080fd5b6002600360008573ffffffffffffffffffffffffffffffffffffffff1673ffffffffffffffffffffffffffffffffffffffff16815260200190815260200160002054815481101515610d1757fe5b906000526020600020906008020160e06040519081016040529081600082018054600181600116156101000203166002900480601f016020809104026020016040519081016040528092919081815260200182805460018160011615610100020316600290048015610dca5780601f10610d9f57610100808354040283529160200191610dca565b820191906000526020600020905b815481529060010190602001808311610dad57829003601f168201915b505050505081526020016001820160009054906101000a900460ff1615151515815260200160028201548152602001600382015481526020016007820160009054906101000a900463ffffffff1663ffffffff1663ffffffff1681526020016007820160049054906101000a900463ffffffff1663ffffffff1663ffffffff1681526020016007820160089054906101000a900473ffffffffffffffffffffffffffffffffffffffff1673ffffffffffffffffffffffffffffffffffffffff1673ffffffffffffffffffffffffffffffffffffffff1681525050905081816060015110151515610f22576040517f08c379a000000000000000000000000000000000000000000000000000000000815260040180806020018281038252601e8152602001807f436f6d70616e7920646f6e74206861766520656e6f7567682066756e6473000081525060200191505060405180910390fd5b6001816020019015159081151581525050806002600360008673ffffffffffffffffffffffffffffffffffffffff1673ffffffffffffffffffffffffffffffffffffffff16815260200190815260200160002054815481101515610f8257fe5b90600052602060002090600802016000820151816000019080519060200190610fac92919061202d565b5060208201518160010160006101000a81548160ff021916908315150217905550604082015181600201556060820151816003015560808201518160070160006101000a81548163ffffffff021916908363ffffffff16021790555060a08201518160070160046101000a81548163ffffffff021916908363ffffffff16021790555060c08201518160070160086101000a81548173ffffffffffffffffffffffffffffffffffffffff021916908373ffffffffffffffffffffffffffffffffffffffff160217905550905050505050565b606060008061108b611fcb565b6002600360008773ffffffffffffffffffffffffffffffffffffffff1673ffffffffffffffffffffffffffffffffffffffff168152602001908152602001600020548154811015156110d957fe5b906000526020600020906008020160e06040519081016040529081600082018054600181600116156101000203166002900480601f01602080910402602001604051908101604052809291908181526020018280546001816001161561010002031660029004801561118c5780601f106111615761010080835404028352916020019161118c565b820191906000526020600020905b81548152906001019060200180831161116f57829003601f168201915b505050505081526020016001820160009054906101000a900460ff1615151515815260200160028201548152602001600382015481526020016007820160009054906101000a900463ffffffff1663ffffffff1663ffffffff1681526020016007820160049054906101000a900463ffffffff1663ffffffff1663ffffffff1681526020016007820160089054906101000a900473ffffffffffffffffffffffffffffffffffffffff1673ffffffffffffffffffffffffffffffffffffffff1673ffffffffffffffffffffffffffffffffffffffff16815250509050806000015181602001518260c00151829250935093509350509193909250565b611290611fcb565b6002600360008473ffffffffffffffffffffffffffffffffffffffff1673ffffffffffffffffffffffffffffffffffffffff168152602001908152602001600020548154811015156112de57fe5b906000526020600020906008020160e06040519081016040529081600082018054600181600116156101000203166002900480601f0160208091040260200160405190810160405280929190818152602001828054600181600116156101000203166002900480156113915780601f1061136657610100808354040283529160200191611391565b820191906000526020600020905b81548152906001019060200180831161137457829003601f168201915b505050505081526020016001820160009054906101000a900460ff1615151515815260200160028201548152602001600382015481526020016007820160009054906101000a900463ffffffff1663ffffffff1663ffffffff1681526020016007820160049054906101000a900463ffffffff1663ffffffff1663ffffffff1681526020016007820160089054906101000a900473ffffffffffffffffffffffffffffffffffffffff1673ffffffffffffffffffffffffffffffffffffffff1673ffffffffffffffffffffffffffffffffffffffff1681525050905034816060018181525050806002600360008573ffffffffffffffffffffffffffffffffffffffff1673ffffffffffffffffffffffffffffffffffffffff168152602001908152602001600020548154811015156114c657fe5b906000526020600020906008020160008201518160000190805190602001906114f092919061202d565b5060208201518160010160006101000a81548160ff021916908315150217905550604082015181600201556060820151816003015560808201518160070160006101000a81548163ffffffff021916908363ffffffff16021790555060a08201518160070160046101000a81548163ffffffff021916908363ffffffff16021790555060c08201518160070160086101000a81548173ffffffffffffffffffffffffffffffffffffffff021916908373ffffffffffffffffffffffffffffffffffffffff1602179055509050505050565b6115c96116d4565b15156115d457600080fd5b600073ffffffffffffffffffffffffffffffffffffffff166000809054906101000a900473ffffffffffffffffffffffffffffffffffffffff1673ffffffffffffffffffffffffffffffffffffffff167f8be0079c531659141344cd1fd0a4f28419497f9722a3daafe3b4186f6b6457e060405160405180910390a360008060006101000a81548173ffffffffffffffffffffffffffffffffffffffff021916908373ffffffffffffffffffffffffffffffffffffffff160217905550565b60036020528060005260406000206000915090505481565b60008060009054906101000a900473ffffffffffffffffffffffffffffffffffffffff16905090565b60008060009054906101000a900473ffffffffffffffffffffffffffffffffffffffff1673ffffffffffffffffffffffffffffffffffffffff163373ffffffffffffffffffffffffffffffffffffffff1614905090565b6117336116d4565b151561173e57600080fd5b600154811115156117b7576040517f08c379a000000000000000000000000000000000000000000000000000000000815260040180806020018281038252601a8152602001807f596f7520646f6e74206861766520656e6f7567682066756e647300000000000081525060200191505060405180910390fd5b6117bf6116ab565b73ffffffffffffffffffffffffffffffffffffffff166108fc829081150290604051600060405180830381858888f19350505050158015611804573d6000803e3d6000fd5b508060016000828254039250508190555050565b611820611fcb565b6118286116d4565b151561183357600080fd5b6002600360008573ffffffffffffffffffffffffffffffffffffffff1673ffffffffffffffffffffffffffffffffffffffff1681526020019081526020016000205481548110151561188157fe5b906000526020600020906008020160e06040519081016040529081600082018054600181600116156101000203166002900480601f0160208091040260200160405190810160405280929190818152602001828054600181600116156101000203166002900480156119345780601f1061190957610100808354040283529160200191611934565b820191906000526020600020905b81548152906001019060200180831161191757829003601f168201915b505050505081526020016001820160009054906101000a900460ff1615151515815260200160028201548152602001600382015481526020016007820160009054906101000a900463ffffffff1663ffffffff1663ffffffff1681526020016007820160049054906101000a900463ffffffff1663ffffffff1663ffffffff1681526020016007820160089054906101000a900473ffffffffffffffffffffffffffffffffffffffff1673ffffffffffffffffffffffffffffffffffffffff1673ffffffffffffffffffffffffffffffffffffffff16815250509050818160c0019073ffffffffffffffffffffffffffffffffffffffff16908173ffffffffffffffffffffffffffffffffffffffff1681525050806002600360008673ffffffffffffffffffffffffffffffffffffffff1673ffffffffffffffffffffffffffffffffffffffff16815260200190815260200160002054815481101515611a9757fe5b90600052602060002090600802016000820151816000019080519060200190611ac192919061202d565b5060208201518160010160006101000a81548160ff021916908315150217905550604082015181600201556060820151816003015560808201518160070160006101000a81548163ffffffff021916908363ffffffff16021790555060a08201518160070160046101000a81548163ffffffff021916908363ffffffff16021790555060c08201518160070160086101000a81548173ffffffffffffffffffffffffffffffffffffffff021916908373ffffffffffffffffffffffffffffffffffffffff160217905550905050505050565b6000806002600360008873ffffffffffffffffffffffffffffffffffffffff1673ffffffffffffffffffffffffffffffffffffffff16815260200190815260200160002054815481101515611be457fe5b906000526020600020906008020191508282600601868660405180838380828437820191505092505050908152602001604051809103902081905550428260070160006101000a81548163ffffffff021916908363ffffffff16021790555081600701600481819054906101000a900463ffffffff168092919060010191906101000a81548163ffffffff021916908363ffffffff1602179055505081600501858560405180838380828437820191505092505050908152602001604051809103902054826006018686604051808383808284378201915050925050509081526020016040518091039020541115611d0c5760648260020154811515611ce657fe5b049050808260030160008282540392505081905550806001600082825401925050819055505b816002600360008973ffffffffffffffffffffffffffffffffffffffff1673ffffffffffffffffffffffffffffffffffffffff16815260200190815260200160002054815481101515611d5b57fe5b906000526020600020906008020160008201816000019080546001816001161561010002031660029004611d909291906120ad565b506001820160009054906101000a900460ff168160010160006101000a81548160ff02191690831515021790555060028201548160020155600382015481600301556007820160009054906101000a900463ffffffff168160070160006101000a81548163ffffffff021916908363ffffffff1602179055506007820160049054906101000a900463ffffffff168160070160046101000a81548163ffffffff021916908363ffffffff1602179055506007820160089054906101000a900473ffffffffffffffffffffffffffffffffffffffff168160070160086101000a81548173ffffffffffffffffffffffffffffffffffffffff021916908373ffffffffffffffffffffffffffffffffffffffff160217905550905050505050505050565b611eba6116d4565b1515611ec557600080fd5b611ece81611ed1565b50565b600073ffffffffffffffffffffffffffffffffffffffff168173ffffffffffffffffffffffffffffffffffffffff1614151515611f0d57600080fd5b8073ffffffffffffffffffffffffffffffffffffffff166000809054906101000a900473ffffffffffffffffffffffffffffffffffffffff1673ffffffffffffffffffffffffffffffffffffffff167f8be0079c531659141344cd1fd0a4f28419497f9722a3daafe3b4186f6b6457e060405160405180910390a3806000806101000a81548173ffffffffffffffffffffffffffffffffffffffff021916908373ffffffffffffffffffffffffffffffffffffffff16021790555050565b60e060405190810160405280606081526020016000151581526020016000815260200160008152602001600063ffffffff168152602001600063ffffffff168152602001600073ffffffffffffffffffffffffffffffffffffffff1681525090565b828054600181600116156101000203166002900490600052602060002090601f016020900481019282601f1061206e57805160ff191683800117855561209c565b8280016001018555821561209c579182015b8281111561209b578251825591602001919060010190612080565b5b5090506120a99190612134565b5090565b828054600181600116156101000203166002900490600052602060002090601f016020900481019282601f106120e65780548555612123565b8280016001018555821561212357600052602060002091601f016020900482015b82811115612122578254825591600101919060010190612107565b5b5090506121309190612134565b5090565b61215691905b8082111561215257600081600090555060010161213a565b5090565b905600a165627a7a72305820c597c0254024f30e639585576622ab9903b8cf7643e205bee5404c7a4b91718b0029",
  "source": "// solium-disable linebreak-style\r\npragma solidity ^0.4.19;\r\n\r\nimport \"../node_modules/openzeppelin-solidity/contracts/ownership/Ownable.sol\";\r\n\r\ncontract Contamination is Ownable{\r\n   \r\n    uint public totalAmountAvailableForOwner;\r\n\r\n    struct Company{    \r\n        string companyName;\r\n        bool active;\r\n        uint initialDeposit;\r\n        uint currentDeposit;\r\n        mapping(string => uint) warning;\r\n        mapping(string => uint) penalty;\r\n        mapping(string => uint) current;\r\n        uint32 lastPollutionDate;\r\n        uint32 totalPollutionAlerts;\r\n        address sensor;\r\n    }\r\n\r\n    Company[] public companies;\r\n    mapping (address => uint) public companyToOwner;\r\n\r\n    function registerCompany(string _companyName) external payable returns (bool){\r\n        require(companyToOwner[msg.sender] != 0, \"Company exists!\");\r\n        Company memory company;\r\n        company.companyName = _companyName;\r\n        company.active = false;\r\n        company.initialDeposit = msg.value;\r\n        company.currentDeposit = msg.value;\r\n\r\n        uint id = companies.push(company) - 1;\r\n        companyToOwner[msg.sender] = id;\r\n\r\n        return true;\r\n    }\r\n\r\n    function registerSensor(address _companyAddress, address _sensorAddress) external onlyOwner{\r\n        Company memory company = companies[companyToOwner[_companyAddress]];\r\n        company.sensor = _sensorAddress;\r\n        companies[companyToOwner[_companyAddress]] = company;\r\n    }\r\n\r\n    function setCurrentDeposit(address _companyAddress) external payable{\r\n        Company memory company = companies[companyToOwner[_companyAddress]];\r\n        company.currentDeposit = msg.value;\r\n        companies[companyToOwner[_companyAddress]] = company;\r\n    }\r\n\r\n    function activateCompany(address _companyAddress, uint amount) external onlyOwner{\r\n        Company memory company = companies[companyToOwner[_companyAddress]];\r\n        require(company.currentDeposit >= amount,\"Company dont have enough funds\");\r\n        company.active = true;\r\n        companies[companyToOwner[_companyAddress]] = company;\r\n    }\r\n\r\n    function setPollutionThreshold(address _companyAddress, string _pollutionType, uint _warning, uint _penalty) external onlyOwner{\r\n        Company storage company = companies[companyToOwner[_companyAddress]];\r\n        company.warning[_pollutionType] = _warning;\r\n        company.penalty[_pollutionType] = _penalty;\r\n        companies[companyToOwner[_companyAddress]] = company;//Verificar si es necesario\r\n    }\r\n    \r\n    function getCompanyInfo(address _companyAddress) external view returns (string,bool,address){\r\n        Company memory company = companies[companyToOwner[_companyAddress]];\r\n        return (company.companyName, company.active, company.sensor);\r\n    }\r\n\r\n    function setCurrentPollution(address _companyAddress, string _pollutionType, uint _current) external {\r\n        Company storage company = companies[companyToOwner[_companyAddress]];\r\n        company.current[_pollutionType] = _current;\r\n        company.lastPollutionDate = uint32(now);\r\n        company.totalPollutionAlerts++;\r\n        if(company.current[_pollutionType] > company.penalty[_pollutionType]){\r\n            uint penalty = company.initialDeposit/100;// (company.current[_pollutionType] / company.penalty[_pollutionType])**company.totalPollutionAlerts;\r\n            company.currentDeposit -= penalty;\r\n            totalAmountAvailableForOwner += penalty;\r\n        }\r\n        companies[companyToOwner[_companyAddress]] = company;\r\n\r\n        //enviar evento\r\n    }\r\n\r\n    function transferFundsToOwner(uint amountToRetrieve) external payable onlyOwner{\r\n        require(amountToRetrieve > totalAmountAvailableForOwner,\"You dont have enough funds\");\r\n        owner().transfer(amountToRetrieve);  \r\n        totalAmountAvailableForOwner -= amountToRetrieve;\r\n    }    \r\n}",
  "sourcePath": "C:\\Users\\pablo.covarrubias.BABEL-SI\\hackathonBabelBlockchain\\Salamancos\\contracts\\Contamination.sol",
  "compiler": {
    "name": "solc",
    "version": "0.4.24+commit.e67f0147.Emscripten.clang"
  },
  "schemaVersion": "2.0.1",
  "updatedAt": "2018-11-17T01:54:34.978Z"
}