{
  "contractName": "Contamination",
  "abi": [
    {
      "constant": true,
      "inputs": [
        {
          "name": "",
          "type": "uint256"
        }
      ],
      "name": "companies",
      "outputs": [
        {
          "name": "companyName",
          "type": "string"
        },
        {
          "name": "active",
          "type": "bool"
        },
        {
          "name": "initialDeposit",
          "type": "uint256"
        },
        {
          "name": "currentDeposit",
          "type": "uint256"
        },
        {
          "name": "lastPollutionDate",
          "type": "uint32"
        },
        {
          "name": "totalPollutionAggregated",
          "type": "uint32"
        },
        {
          "name": "sensor",
          "type": "address"
        }
      ],
      "payable": false,
      "stateMutability": "view",
      "type": "function"
    },
    {
      "constant": false,
      "inputs": [],
      "name": "renounceOwnership",
      "outputs": [],
      "payable": false,
      "stateMutability": "nonpayable",
      "type": "function"
    },
    {
      "constant": true,
      "inputs": [
        {
          "name": "",
          "type": "address"
        }
      ],
      "name": "companyToOwner",
      "outputs": [
        {
          "name": "",
          "type": "uint256"
        }
      ],
      "payable": false,
      "stateMutability": "view",
      "type": "function"
    },
    {
      "constant": true,
      "inputs": [],
      "name": "owner",
      "outputs": [
        {
          "name": "",
          "type": "address"
        }
      ],
      "payable": false,
      "stateMutability": "view",
      "type": "function"
    },
    {
      "constant": true,
      "inputs": [],
      "name": "isOwner",
      "outputs": [
        {
          "name": "",
          "type": "bool"
        }
      ],
      "payable": false,
      "stateMutability": "view",
      "type": "function"
    },
    {
      "constant": false,
      "inputs": [
        {
          "name": "newOwner",
          "type": "address"
        }
      ],
      "name": "transferOwnership",
      "outputs": [],
      "payable": false,
      "stateMutability": "nonpayable",
      "type": "function"
    },
    {
      "anonymous": false,
      "inputs": [
        {
          "indexed": true,
          "name": "previousOwner",
          "type": "address"
        },
        {
          "indexed": true,
          "name": "newOwner",
          "type": "address"
        }
      ],
      "name": "OwnershipTransferred",
      "type": "event"
    },
    {
      "constant": false,
      "inputs": [
        {
          "name": "_companyName",
          "type": "string"
        }
      ],
      "name": "registerCompany",
      "outputs": [
        {
          "name": "",
          "type": "bool"
        }
      ],
      "payable": true,
      "stateMutability": "payable",
      "type": "function"
    },
    {
      "constant": false,
      "inputs": [
        {
          "name": "_companyAddress",
          "type": "address"
        },
        {
          "name": "_sensorAddress",
          "type": "address"
        }
      ],
      "name": "registerSensor",
      "outputs": [],
      "payable": false,
      "stateMutability": "nonpayable",
      "type": "function"
    },
    {
      "constant": false,
      "inputs": [
        {
          "name": "_companyAddress",
          "type": "address"
        }
      ],
      "name": "activateCompany",
      "outputs": [],
      "payable": false,
      "stateMutability": "nonpayable",
      "type": "function"
    },
    {
      "constant": true,
      "inputs": [
        {
          "name": "_companyAddress",
          "type": "address"
        }
      ],
      "name": "getCompanyInfo",
      "outputs": [
        {
          "name": "",
          "type": "string"
        },
        {
          "name": "",
          "type": "bool"
        },
        {
          "name": "",
          "type": "address"
        }
      ],
      "payable": false,
      "stateMutability": "view",
      "type": "function"
    }
  ],
  "bytecode": "0x6080604052336000806101000a81548173ffffffffffffffffffffffffffffffffffffffff021916908373ffffffffffffffffffffffffffffffffffffffff1602179055506000809054906101000a900473ffffffffffffffffffffffffffffffffffffffff1673ffffffffffffffffffffffffffffffffffffffff16600073ffffffffffffffffffffffffffffffffffffffff167f8be0079c531659141344cd1fd0a4f28419497f9722a3daafe3b4186f6b6457e060405160405180910390a3611508806100cf6000396000f3006080604052600436106100a3576000357c0100000000000000000000000000000000000000000000000000000000900463ffffffff168062544194146100a8578063250a647c146100ee5780632813d19d1461013157806342e12c8314610249578063715018a6146103435780637f0605d41461035a5780638da5cb5b146103b15780638f32d59b14610408578063cd3d3fa414610437578063f2fde38b1461049a575b600080fd5b6100d46004803603810190808035906020019082018035906020019190919293919293905050506104dd565b604051808215151515815260200191505060405180910390f35b3480156100fa57600080fd5b5061012f600480360381019080803573ffffffffffffffffffffffffffffffffffffffff16906020019092919050505061076a565b005b34801561013d57600080fd5b5061015c60048036038101908080359060200190929190505050610aaa565b6040518080602001881515151581526020018781526020018681526020018563ffffffff1663ffffffff1681526020018463ffffffff1663ffffffff1681526020018373ffffffffffffffffffffffffffffffffffffffff1673ffffffffffffffffffffffffffffffffffffffff168152602001828103825289818151815260200191508051906020019080838360005b838110156102085780820151818401526020810190506101ed565b50505050905090810190601f1680156102355780820380516001836020036101000a031916815260200191505b509850505050505050505060405180910390f35b34801561025557600080fd5b5061028a600480360381019080803573ffffffffffffffffffffffffffffffffffffffff169060200190929190505050610be0565b6040518080602001841515151581526020018373ffffffffffffffffffffffffffffffffffffffff1673ffffffffffffffffffffffffffffffffffffffff168152602001828103825285818151815260200191508051906020019080838360005b838110156103065780820151818401526020810190506102eb565b50505050905090810190601f1680156103335780820380516001836020036101000a031916815260200191505b5094505050505060405180910390f35b34801561034f57600080fd5b50610358610dea565b005b34801561036657600080fd5b5061039b600480360381019080803573ffffffffffffffffffffffffffffffffffffffff169060200190929190505050610ebc565b6040518082815260200191505060405180910390f35b3480156103bd57600080fd5b506103c6610ed4565b604051808273ffffffffffffffffffffffffffffffffffffffff1673ffffffffffffffffffffffffffffffffffffffff16815260200191505060405180910390f35b34801561041457600080fd5b5061041d610efd565b604051808215151515815260200191505060405180910390f35b34801561044357600080fd5b50610498600480360381019080803573ffffffffffffffffffffffffffffffffffffffff169060200190929190803573ffffffffffffffffffffffffffffffffffffffff169060200190929190505050610f54565b005b3480156104a657600080fd5b506104db600480360381019080803573ffffffffffffffffffffffffffffffffffffffff1690602001909291905050506112bc565b005b60006104e76113d5565b600080600260003373ffffffffffffffffffffffffffffffffffffffff1673ffffffffffffffffffffffffffffffffffffffff16815260200190815260200160002054141515156105a0576040517f08c379a000000000000000000000000000000000000000000000000000000000815260040180806020018281038252600f8152602001807f436f6d70616e792065786973747321000000000000000000000000000000000081525060200191505060405180910390fd5b84848080601f0160208091040260200160405190810160405280939291908181526020018383808284378201915050505050508260000181905250600082602001901515908115158152505034826040018181525050348260600181815250506001808390806001815401808255809150509060018203906000526020600020906008020160009091929091909150600082015181600001908051906020019061064b929190611437565b5060208201518160010160006101000a81548160ff021916908315150217905550604082015181600201556060820151816003015560808201518160070160006101000a81548163ffffffff021916908363ffffffff16021790555060a08201518160070160046101000a81548163ffffffff021916908363ffffffff16021790555060c08201518160070160086101000a81548173ffffffffffffffffffffffffffffffffffffffff021916908373ffffffffffffffffffffffffffffffffffffffff160217905550505003905080600260003373ffffffffffffffffffffffffffffffffffffffff1673ffffffffffffffffffffffffffffffffffffffff1681526020019081526020016000208190555060019250505092915050565b6107726113d5565b6001600260008473ffffffffffffffffffffffffffffffffffffffff1673ffffffffffffffffffffffffffffffffffffffff168152602001908152602001600020548154811015156107c057fe5b906000526020600020906008020160e06040519081016040529081600082018054600181600116156101000203166002900480601f0160208091040260200160405190810160405280929190818152602001828054600181600116156101000203166002900480156108735780601f1061084857610100808354040283529160200191610873565b820191906000526020600020905b81548152906001019060200180831161085657829003601f168201915b505050505081526020016001820160009054906101000a900460ff1615151515815260200160028201548152602001600382015481526020016007820160009054906101000a900463ffffffff1663ffffffff1663ffffffff1681526020016007820160049054906101000a900463ffffffff1663ffffffff1663ffffffff1681526020016007820160089054906101000a900473ffffffffffffffffffffffffffffffffffffffff1673ffffffffffffffffffffffffffffffffffffffff1673ffffffffffffffffffffffffffffffffffffffff168152505090506001816020019015159081151581525050806001600260008573ffffffffffffffffffffffffffffffffffffffff1673ffffffffffffffffffffffffffffffffffffffff168152602001908152602001600020548154811015156109af57fe5b906000526020600020906008020160008201518160000190805190602001906109d9929190611437565b5060208201518160010160006101000a81548160ff021916908315150217905550604082015181600201556060820151816003015560808201518160070160006101000a81548163ffffffff021916908363ffffffff16021790555060a08201518160070160046101000a81548163ffffffff021916908363ffffffff16021790555060c08201518160070160086101000a81548173ffffffffffffffffffffffffffffffffffffffff021916908373ffffffffffffffffffffffffffffffffffffffff1602179055509050505050565b600181815481101515610ab957fe5b9060005260206000209060080201600091509050806000018054600181600116156101000203166002900480601f016020809104026020016040519081016040528092919081815260200182805460018160011615610100020316600290048015610b655780601f10610b3a57610100808354040283529160200191610b65565b820191906000526020600020905b815481529060010190602001808311610b4857829003601f168201915b5050505050908060010160009054906101000a900460ff16908060020154908060030154908060070160009054906101000a900463ffffffff16908060070160049054906101000a900463ffffffff16908060070160089054906101000a900473ffffffffffffffffffffffffffffffffffffffff16905087565b6060600080610bed6113d5565b6001600260008773ffffffffffffffffffffffffffffffffffffffff1673ffffffffffffffffffffffffffffffffffffffff16815260200190815260200160002054815481101515610c3b57fe5b906000526020600020906008020160e06040519081016040529081600082018054600181600116156101000203166002900480601f016020809104026020016040519081016040528092919081815260200182805460018160011615610100020316600290048015610cee5780601f10610cc357610100808354040283529160200191610cee565b820191906000526020600020905b815481529060010190602001808311610cd157829003601f168201915b505050505081526020016001820160009054906101000a900460ff1615151515815260200160028201548152602001600382015481526020016007820160009054906101000a900463ffffffff1663ffffffff1663ffffffff1681526020016007820160049054906101000a900463ffffffff1663ffffffff1663ffffffff1681526020016007820160089054906101000a900473ffffffffffffffffffffffffffffffffffffffff1673ffffffffffffffffffffffffffffffffffffffff1673ffffffffffffffffffffffffffffffffffffffff16815250509050806000015181602001518260c00151829250935093509350509193909250565b610df2610efd565b1515610dfd57600080fd5b600073ffffffffffffffffffffffffffffffffffffffff166000809054906101000a900473ffffffffffffffffffffffffffffffffffffffff1673ffffffffffffffffffffffffffffffffffffffff167f8be0079c531659141344cd1fd0a4f28419497f9722a3daafe3b4186f6b6457e060405160405180910390a360008060006101000a81548173ffffffffffffffffffffffffffffffffffffffff021916908373ffffffffffffffffffffffffffffffffffffffff160217905550565b60026020528060005260406000206000915090505481565b60008060009054906101000a900473ffffffffffffffffffffffffffffffffffffffff16905090565b60008060009054906101000a900473ffffffffffffffffffffffffffffffffffffffff1673ffffffffffffffffffffffffffffffffffffffff163373ffffffffffffffffffffffffffffffffffffffff1614905090565b610f5c6113d5565b6001600260008573ffffffffffffffffffffffffffffffffffffffff1673ffffffffffffffffffffffffffffffffffffffff16815260200190815260200160002054815481101515610faa57fe5b906000526020600020906008020160e06040519081016040529081600082018054600181600116156101000203166002900480601f01602080910402602001604051908101604052809291908181526020018280546001816001161561010002031660029004801561105d5780601f106110325761010080835404028352916020019161105d565b820191906000526020600020905b81548152906001019060200180831161104057829003601f168201915b505050505081526020016001820160009054906101000a900460ff1615151515815260200160028201548152602001600382015481526020016007820160009054906101000a900463ffffffff1663ffffffff1663ffffffff1681526020016007820160049054906101000a900463ffffffff1663ffffffff1663ffffffff1681526020016007820160089054906101000a900473ffffffffffffffffffffffffffffffffffffffff1673ffffffffffffffffffffffffffffffffffffffff1673ffffffffffffffffffffffffffffffffffffffff16815250509050818160c0019073ffffffffffffffffffffffffffffffffffffffff16908173ffffffffffffffffffffffffffffffffffffffff1681525050806001600260008673ffffffffffffffffffffffffffffffffffffffff1673ffffffffffffffffffffffffffffffffffffffff168152602001908152602001600020548154811015156111c057fe5b906000526020600020906008020160008201518160000190805190602001906111ea929190611437565b5060208201518160010160006101000a81548160ff021916908315150217905550604082015181600201556060820151816003015560808201518160070160006101000a81548163ffffffff021916908363ffffffff16021790555060a08201518160070160046101000a81548163ffffffff021916908363ffffffff16021790555060c08201518160070160086101000a81548173ffffffffffffffffffffffffffffffffffffffff021916908373ffffffffffffffffffffffffffffffffffffffff160217905550905050505050565b6112c4610efd565b15156112cf57600080fd5b6112d8816112db565b50565b600073ffffffffffffffffffffffffffffffffffffffff168173ffffffffffffffffffffffffffffffffffffffff161415151561131757600080fd5b8073ffffffffffffffffffffffffffffffffffffffff166000809054906101000a900473ffffffffffffffffffffffffffffffffffffffff1673ffffffffffffffffffffffffffffffffffffffff167f8be0079c531659141344cd1fd0a4f28419497f9722a3daafe3b4186f6b6457e060405160405180910390a3806000806101000a81548173ffffffffffffffffffffffffffffffffffffffff021916908373ffffffffffffffffffffffffffffffffffffffff16021790555050565b60e060405190810160405280606081526020016000151581526020016000815260200160008152602001600063ffffffff168152602001600063ffffffff168152602001600073ffffffffffffffffffffffffffffffffffffffff1681525090565b828054600181600116156101000203166002900490600052602060002090601f016020900481019282601f1061147857805160ff19168380011785556114a6565b828001600101855582156114a6579182015b828111156114a557825182559160200191906001019061148a565b5b5090506114b391906114b7565b5090565b6114d991905b808211156114d55760008160009055506001016114bd565b5090565b905600a165627a7a723058208eb4f5fa9bf87b5b9487322b1d91dd6cf272dda1f9fc97403283300f8008456f0029",
  "source": "// solium-disable linebreak-style\r\npragma solidity ^0.4.19;\r\n\r\nimport \"../node_modules/openzeppelin-solidity/contracts/ownership/Ownable.sol\";\r\n\r\ncontract Contamination is Ownable{\r\n   \r\n    struct Company{    \r\n        string companyName;\r\n        bool active;\r\n        uint initialDeposit;\r\n        uint currentDeposit;\r\n        mapping(string => uint) warning;\r\n        mapping(string => uint) penalty;\r\n        mapping(string => uint) current;\r\n        uint32 lastPollutionDate;\r\n        uint32 totalPollutionAggregated;\r\n        address sensor;\r\n    }\r\n\r\n    Company[] public companies;\r\n    mapping (address => uint) public companyToOwner;\r\n\r\n    function registerCompany(string _companyName) external payable returns (bool){\r\n        require(companyToOwner[msg.sender] != 0, \"Company exists!\");\r\n        Company memory company;\r\n        company.companyName = _companyName;\r\n        company.active = false;\r\n        company.initialDeposit = msg.value;\r\n        company.currentDeposit = msg.value;\r\n\r\n        uint id = companies.push(company) - 1;\r\n        companyToOwner[msg.sender] = id;\r\n\r\n        return true;\r\n    }\r\n\r\n    function registerSensor(address _companyAddress, address _sensorAddress) external {\r\n        Company memory company = companies[companyToOwner[_companyAddress]];\r\n        company.sensor = _sensorAddress;\r\n        companies[companyToOwner[_companyAddress]] = company;\r\n    }\r\n\r\n    function activateCompany(address _companyAddress) external {\r\n        Company memory company = companies[companyToOwner[_companyAddress]];\r\n        company.active = true;\r\n        companies[companyToOwner[_companyAddress]] = company;\r\n    }\r\n    \r\n    function getCompanyInfo(address _companyAddress) external view returns (string,bool,address){\r\n        Company memory company = companies[companyToOwner[_companyAddress]];\r\n        return (company.companyName, company.active, company.sensor);\r\n    }\r\n\r\n}",
  "sourcePath": "C:\\Users\\pablo.covarrubias.BABEL-SI\\hackathonBabelBlockchain\\Salamancos\\contracts\\Contamination.sol",
  "compiler": {
    "name": "solc",
    "version": "0.4.24+commit.e67f0147.Emscripten.clang"
  },
  "schemaVersion": "2.0.1",
  "updatedAt": "2018-11-17T00:14:56.672Z"
}