{
  "contractName": "Contamination",
  "abi": [
    {
      "constant": true,
      "inputs": [],
      "name": "totalAmountAvailableForOwner",
      "outputs": [
        {
          "name": "",
          "type": "uint256"
        }
      ],
      "payable": false,
      "stateMutability": "view",
      "type": "function"
    },
    {
      "constant": true,
      "inputs": [
        {
          "name": "",
          "type": "uint256"
        }
      ],
      "name": "companies",
      "outputs": [
        {
          "name": "companyAddress",
          "type": "address"
        },
        {
          "name": "companyName",
          "type": "string"
        },
        {
          "name": "active",
          "type": "bool"
        },
        {
          "name": "initialDeposit",
          "type": "uint256"
        },
        {
          "name": "currentDeposit",
          "type": "uint256"
        },
        {
          "name": "warningAir",
          "type": "uint256"
        },
        {
          "name": "warningWater",
          "type": "uint256"
        },
        {
          "name": "penaltyAir",
          "type": "uint256"
        },
        {
          "name": "penaltyWater",
          "type": "uint256"
        },
        {
          "name": "currentAir",
          "type": "uint256"
        },
        {
          "name": "currentWater",
          "type": "uint256"
        },
        {
          "name": "lastPollutionDate",
          "type": "uint32"
        },
        {
          "name": "totalPollutionAlerts",
          "type": "uint32"
        },
        {
          "name": "sensor",
          "type": "address"
        }
      ],
      "payable": false,
      "stateMutability": "view",
      "type": "function"
    },
    {
      "constant": false,
      "inputs": [],
      "name": "renounceOwnership",
      "outputs": [],
      "payable": false,
      "stateMutability": "nonpayable",
      "type": "function"
    },
    {
      "constant": true,
      "inputs": [
        {
          "name": "",
          "type": "address"
        }
      ],
      "name": "companyToOwner",
      "outputs": [
        {
          "name": "",
          "type": "uint256"
        }
      ],
      "payable": false,
      "stateMutability": "view",
      "type": "function"
    },
    {
      "constant": true,
      "inputs": [],
      "name": "owner",
      "outputs": [
        {
          "name": "",
          "type": "address"
        }
      ],
      "payable": false,
      "stateMutability": "view",
      "type": "function"
    },
    {
      "constant": true,
      "inputs": [],
      "name": "isOwner",
      "outputs": [
        {
          "name": "",
          "type": "bool"
        }
      ],
      "payable": false,
      "stateMutability": "view",
      "type": "function"
    },
    {
      "constant": false,
      "inputs": [
        {
          "name": "newOwner",
          "type": "address"
        }
      ],
      "name": "transferOwnership",
      "outputs": [],
      "payable": false,
      "stateMutability": "nonpayable",
      "type": "function"
    },
    {
      "anonymous": false,
      "inputs": [
        {
          "indexed": false,
          "name": "_companyAddress",
          "type": "address"
        },
        {
          "indexed": false,
          "name": "_current",
          "type": "uint256"
        },
        {
          "indexed": false,
          "name": "currentDeposit",
          "type": "uint256"
        },
        {
          "indexed": false,
          "name": "totalAmountAvailableForOwner",
          "type": "uint256"
        }
      ],
      "name": "UpdatedAirPollutionData",
      "type": "event"
    },
    {
      "anonymous": false,
      "inputs": [
        {
          "indexed": false,
          "name": "_companyAddress",
          "type": "address"
        },
        {
          "indexed": false,
          "name": "_current",
          "type": "uint256"
        },
        {
          "indexed": false,
          "name": "currentDeposit",
          "type": "uint256"
        },
        {
          "indexed": false,
          "name": "totalAmountAvailableForOwner",
          "type": "uint256"
        }
      ],
      "name": "UpdatedWaterPollutionData",
      "type": "event"
    },
    {
      "anonymous": false,
      "inputs": [
        {
          "indexed": true,
          "name": "previousOwner",
          "type": "address"
        },
        {
          "indexed": true,
          "name": "newOwner",
          "type": "address"
        }
      ],
      "name": "OwnershipTransferred",
      "type": "event"
    },
    {
      "constant": false,
      "inputs": [
        {
          "name": "_companyName",
          "type": "string"
        }
      ],
      "name": "registerCompany",
      "outputs": [
        {
          "name": "",
          "type": "bool"
        }
      ],
      "payable": true,
      "stateMutability": "payable",
      "type": "function"
    },
    {
      "constant": false,
      "inputs": [
        {
          "name": "_companyAddress",
          "type": "address"
        },
        {
          "name": "_sensorAddress",
          "type": "address"
        }
      ],
      "name": "registerSensor",
      "outputs": [
        {
          "name": "",
          "type": "bool"
        }
      ],
      "payable": false,
      "stateMutability": "nonpayable",
      "type": "function"
    },
    {
      "constant": false,
      "inputs": [
        {
          "name": "_companyAddress",
          "type": "address"
        }
      ],
      "name": "setCurrentDeposit",
      "outputs": [],
      "payable": true,
      "stateMutability": "payable",
      "type": "function"
    },
    {
      "constant": false,
      "inputs": [
        {
          "name": "_companyAddress",
          "type": "address"
        },
        {
          "name": "amount",
          "type": "uint256"
        }
      ],
      "name": "activateCompany",
      "outputs": [
        {
          "name": "",
          "type": "bool"
        }
      ],
      "payable": false,
      "stateMutability": "nonpayable",
      "type": "function"
    },
    {
      "constant": true,
      "inputs": [
        {
          "name": "_companyAddress",
          "type": "address"
        }
      ],
      "name": "getCompanyInfo",
      "outputs": [
        {
          "name": "",
          "type": "string"
        },
        {
          "name": "",
          "type": "uint256"
        },
        {
          "name": "",
          "type": "uint256"
        },
        {
          "name": "",
          "type": "uint32"
        },
        {
          "name": "",
          "type": "uint256"
        },
        {
          "name": "",
          "type": "uint256"
        },
        {
          "name": "",
          "type": "address"
        }
      ],
      "payable": false,
      "stateMutability": "view",
      "type": "function"
    },
    {
      "constant": true,
      "inputs": [
        {
          "name": "position",
          "type": "uint256"
        }
      ],
      "name": "getCompanyAddressById",
      "outputs": [
        {
          "name": "",
          "type": "address"
        }
      ],
      "payable": false,
      "stateMutability": "view",
      "type": "function"
    },
    {
      "constant": true,
      "inputs": [],
      "name": "getRegisteredCompaniesCount",
      "outputs": [
        {
          "name": "",
          "type": "uint256"
        }
      ],
      "payable": false,
      "stateMutability": "view",
      "type": "function"
    },
    {
      "constant": false,
      "inputs": [
        {
          "name": "_companyAddress",
          "type": "address"
        },
        {
          "name": "_current",
          "type": "uint256"
        }
      ],
      "name": "setCurrentAirPollution",
      "outputs": [],
      "payable": false,
      "stateMutability": "nonpayable",
      "type": "function"
    },
    {
      "constant": false,
      "inputs": [
        {
          "name": "_companyAddress",
          "type": "address"
        },
        {
          "name": "_current",
          "type": "uint256"
        }
      ],
      "name": "setCurrentWaterPollution",
      "outputs": [],
      "payable": false,
      "stateMutability": "nonpayable",
      "type": "function"
    },
    {
      "constant": false,
      "inputs": [
        {
          "name": "amountToRetrieve",
          "type": "uint256"
        }
      ],
      "name": "transferFundsToOwner",
      "outputs": [
        {
          "name": "",
          "type": "bool"
        }
      ],
      "payable": true,
      "stateMutability": "payable",
      "type": "function"
    },
    {
      "constant": true,
      "inputs": [],
      "name": "getCurrentBalance",
      "outputs": [
        {
          "name": "",
          "type": "uint256"
        }
      ],
      "payable": false,
      "stateMutability": "view",
      "type": "function"
    }
  ],
  "bytecode": "0x6080604052336000806101000a81548173ffffffffffffffffffffffffffffffffffffffff021916908373ffffffffffffffffffffffffffffffffffffffff1602179055506000809054906101000a900473ffffffffffffffffffffffffffffffffffffffff1673ffffffffffffffffffffffffffffffffffffffff16600073ffffffffffffffffffffffffffffffffffffffff167f8be0079c531659141344cd1fd0a4f28419497f9722a3daafe3b4186f6b6457e060405160405180910390a3612a5f806100cf6000396000f3006080604052600436106100fb576000357c0100000000000000000000000000000000000000000000000000000000900463ffffffff1680625441941461010057806320ea8f60146101465780632231638e146101715780632813d19d146101be5780632f0a5409146103335780633ce7b7a41461039857806342e12c83146103c35780636ab8bf1a146104e1578063715018a614610517578063764c2e231461052e5780637f0605d41461059b5780638da5cb5b146105f25780638f32d59b14610649578063a574971014610678578063af6738eb146106a3578063cd3d3fa4146106db578063cf88644314610756578063f2fde38b146107a3575b600080fd5b61012c6004803603810190808035906020019082018035906020019190919293919293905050506107e6565b604051808215151515815260200191505060405180910390f35b34801561015257600080fd5b5061015b610af7565b6040518082815260200191505060405180910390f35b34801561017d57600080fd5b506101bc600480360381019080803573ffffffffffffffffffffffffffffffffffffffff16906020019092919080359060200190929190505050610afd565b005b3480156101ca57600080fd5b506101e960048036038101908080359060200190929190505050610ed0565b604051808f73ffffffffffffffffffffffffffffffffffffffff1673ffffffffffffffffffffffffffffffffffffffff168152602001806020018e1515151581526020018d81526020018c81526020018b81526020018a81526020018981526020018881526020018781526020018681526020018563ffffffff1663ffffffff1681526020018463ffffffff1663ffffffff1681526020018373ffffffffffffffffffffffffffffffffffffffff1673ffffffffffffffffffffffffffffffffffffffff16815260200182810382528f818151815260200191508051906020019080838360005b838110156102eb5780820151818401526020810190506102d0565b50505050905090810190601f1680156103185780820380516001836020036101000a031916815260200191505b509f5050505050505050505050505050505060405180910390f35b34801561033f57600080fd5b5061037e600480360381019080803573ffffffffffffffffffffffffffffffffffffffff16906020019092919080359060200190929190505050611050565b604051808215151515815260200191505060405180910390f35b3480156103a457600080fd5b506103ad6114c8565b6040518082815260200191505060405180910390f35b3480156103cf57600080fd5b50610404600480360381019080803573ffffffffffffffffffffffffffffffffffffffff1690602001909291905050506114d5565b60405180806020018881526020018781526020018663ffffffff1663ffffffff1681526020018581526020018481526020018373ffffffffffffffffffffffffffffffffffffffff1673ffffffffffffffffffffffffffffffffffffffff168152602001828103825289818151815260200191508051906020019080838360005b838110156104a0578082015181840152602081019050610485565b50505050905090810190601f1680156104cd5780820380516001836020036101000a031916815260200191505b509850505050505050505060405180910390f35b610515600480360381019080803573ffffffffffffffffffffffffffffffffffffffff1690602001909291905050506117c2565b005b34801561052357600080fd5b5061052c611c17565b005b34801561053a57600080fd5b5061055960048036038101908080359060200190929190505050611ce9565b604051808273ffffffffffffffffffffffffffffffffffffffff1673ffffffffffffffffffffffffffffffffffffffff16815260200191505060405180910390f35b3480156105a757600080fd5b506105dc600480360381019080803573ffffffffffffffffffffffffffffffffffffffff169060200190929190505050611d33565b6040518082815260200191505060405180910390f35b3480156105fe57600080fd5b50610607611d4b565b604051808273ffffffffffffffffffffffffffffffffffffffff1673ffffffffffffffffffffffffffffffffffffffff16815260200191505060405180910390f35b34801561065557600080fd5b5061065e611d74565b604051808215151515815260200191505060405180910390f35b34801561068457600080fd5b5061068d611dcb565b6040518082815260200191505060405180910390f35b6106c160048036038101908080359060200190929190505050611dea565b604051808215151515815260200191505060405180910390f35b3480156106e757600080fd5b5061073c600480360381019080803573ffffffffffffffffffffffffffffffffffffffff169060200190929190803573ffffffffffffffffffffffffffffffffffffffff169060200190929190505050611ee0565b604051808215151515815260200191505060405180910390f35b34801561076257600080fd5b506107a1600480360381019080803573ffffffffffffffffffffffffffffffffffffffff16906020019092919080359060200190929190505050612380565b005b3480156107af57600080fd5b506107e4600480360381019080803573ffffffffffffffffffffffffffffffffffffffff169060200190929190505050612744565b005b60006107f061285d565b600033826000019073ffffffffffffffffffffffffffffffffffffffff16908173ffffffffffffffffffffffffffffffffffffffff168152505084848080601f01602080910402602001604051908101604052809392919081815260200183838082843782019150505050505082602001819052506000826040019015159081151581525050348260600181815250503482608001818152505060148260a001818152505060148260c0018181525050601e8260e0018181525050601e82610100018181525050600082610120018181525050600082610140018181525050600082610180019063ffffffff16908163ffffffff1681525050600082610160019063ffffffff16908163ffffffff168152505060016002839080600181540180825580915050906001820390600052602060002090600c02016000909192909190915060008201518160000160006101000a81548173ffffffffffffffffffffffffffffffffffffffff021916908373ffffffffffffffffffffffffffffffffffffffff1602179055506020820151816001019080519060200190610996929190612907565b5060408201518160020160006101000a81548160ff021916908315150217905550606082015181600301556080820151816004015560a0820151816005015560c0820151816006015560e082015181600701556101008201518160080155610120820151816009015561014082015181600a015561016082015181600b0160006101000a81548163ffffffff021916908363ffffffff16021790555061018082015181600b0160046101000a81548163ffffffff021916908363ffffffff1602179055506101a082015181600b0160086101000a81548173ffffffffffffffffffffffffffffffffffffffff021916908373ffffffffffffffffffffffffffffffffffffffff160217905550505003905080600360003373ffffffffffffffffffffffffffffffffffffffff1673ffffffffffffffffffffffffffffffffffffffff1681526020019081526020016000208190555060019250505092915050565b60015481565b60006002600360008573ffffffffffffffffffffffffffffffffffffffff1673ffffffffffffffffffffffffffffffffffffffff16815260200190815260200160002054815481101515610b4d57fe5b90600052602060002090600c020190508181600a0181905550806008015481600a01541115610c09574281600b0160006101000a81548163ffffffff021916908363ffffffff16021790555080600b01600481819054906101000a900463ffffffff168092919060010191906101000a81548163ffffffff021916908363ffffffff16021790555050670de0b6b3a76400008160040160008282540392505081905550670de0b6b3a76400006001600082825401925050819055505b806002600360008673ffffffffffffffffffffffffffffffffffffffff1673ffffffffffffffffffffffffffffffffffffffff16815260200190815260200160002054815481101515610c5857fe5b90600052602060002090600c02016000820160009054906101000a900473ffffffffffffffffffffffffffffffffffffffff168160000160006101000a81548173ffffffffffffffffffffffffffffffffffffffff021916908373ffffffffffffffffffffffffffffffffffffffff16021790555060018201816001019080546001816001161561010002031660029004610cf4929190612987565b506002820160009054906101000a900460ff168160020160006101000a81548160ff02191690831515021790555060038201548160030155600482015481600401556005820154816005015560068201548160060155600782015481600701556008820154816008015560098201548160090155600a82015481600a0155600b820160009054906101000a900463ffffffff1681600b0160006101000a81548163ffffffff021916908363ffffffff160217905550600b820160049054906101000a900463ffffffff1681600b0160046101000a81548163ffffffff021916908363ffffffff160217905550600b820160089054906101000a900473ffffffffffffffffffffffffffffffffffffffff1681600b0160086101000a81548173ffffffffffffffffffffffffffffffffffffffff021916908373ffffffffffffffffffffffffffffffffffffffff1602179055509050507f3b962d895346d75a18f9934337d910362182100a36dcbf1ff92005fa1f39bd6d83838360040154600154604051808573ffffffffffffffffffffffffffffffffffffffff1673ffffffffffffffffffffffffffffffffffffffff16815260200184815260200183815260200182815260200194505050505060405180910390a1505050565b600281815481101515610edf57fe5b90600052602060002090600c02016000915090508060000160009054906101000a900473ffffffffffffffffffffffffffffffffffffffff1690806001018054600181600116156101000203166002900480601f016020809104026020016040519081016040528092919081815260200182805460018160011615610100020316600290048015610fb15780601f10610f8657610100808354040283529160200191610fb1565b820191906000526020600020905b815481529060010190602001808311610f9457829003601f168201915b5050505050908060020160009054906101000a900460ff169080600301549080600401549080600501549080600601549080600701549080600801549080600901549080600a01549080600b0160009054906101000a900463ffffffff169080600b0160049054906101000a900463ffffffff169080600b0160089054906101000a900473ffffffffffffffffffffffffffffffffffffffff1690508e565b600061105a61285d565b611062611d74565b151561106d57600080fd5b6002600360008673ffffffffffffffffffffffffffffffffffffffff1673ffffffffffffffffffffffffffffffffffffffff168152602001908152602001600020548154811015156110bb57fe5b90600052602060002090600c02016101c060405190810160405290816000820160009054906101000a900473ffffffffffffffffffffffffffffffffffffffff1673ffffffffffffffffffffffffffffffffffffffff1673ffffffffffffffffffffffffffffffffffffffff168152602001600182018054600181600116156101000203166002900480601f0160208091040260200160405190810160405280929190818152602001828054600181600116156101000203166002900480156111c55780601f1061119a576101008083540402835291602001916111c5565b820191906000526020600020905b8154815290600101906020018083116111a857829003601f168201915b505050505081526020016002820160009054906101000a900460ff1615151515815260200160038201548152602001600482015481526020016005820154815260200160068201548152602001600782015481526020016008820154815260200160098201548152602001600a8201548152602001600b820160009054906101000a900463ffffffff1663ffffffff1663ffffffff168152602001600b820160049054906101000a900463ffffffff1663ffffffff1663ffffffff168152602001600b820160089054906101000a900473ffffffffffffffffffffffffffffffffffffffff1673ffffffffffffffffffffffffffffffffffffffff1673ffffffffffffffffffffffffffffffffffffffff168152505090506001816040019015159081151581525050806002600360008773ffffffffffffffffffffffffffffffffffffffff1673ffffffffffffffffffffffffffffffffffffffff1681526020019081526020016000205481548110151561133d57fe5b90600052602060002090600c020160008201518160000160006101000a81548173ffffffffffffffffffffffffffffffffffffffff021916908373ffffffffffffffffffffffffffffffffffffffff16021790555060208201518160010190805190602001906113ae929190612907565b5060408201518160020160006101000a81548160ff021916908315150217905550606082015181600301556080820151816004015560a0820151816005015560c0820151816006015560e082015181600701556101008201518160080155610120820151816009015561014082015181600a015561016082015181600b0160006101000a81548163ffffffff021916908363ffffffff16021790555061018082015181600b0160046101000a81548163ffffffff021916908363ffffffff1602179055506101a082015181600b0160086101000a81548173ffffffffffffffffffffffffffffffffffffffff021916908373ffffffffffffffffffffffffffffffffffffffff160217905550905050600191505092915050565b6000600280549050905090565b60606000806000806000806114e861285d565b6002600360008b73ffffffffffffffffffffffffffffffffffffffff1673ffffffffffffffffffffffffffffffffffffffff1681526020019081526020016000205481548110151561153657fe5b90600052602060002090600c02016101c060405190810160405290816000820160009054906101000a900473ffffffffffffffffffffffffffffffffffffffff1673ffffffffffffffffffffffffffffffffffffffff1673ffffffffffffffffffffffffffffffffffffffff168152602001600182018054600181600116156101000203166002900480601f0160208091040260200160405190810160405280929190818152602001828054600181600116156101000203166002900480156116405780601f1061161557610100808354040283529160200191611640565b820191906000526020600020905b81548152906001019060200180831161162357829003601f168201915b505050505081526020016002820160009054906101000a900460ff1615151515815260200160038201548152602001600482015481526020016005820154815260200160068201548152602001600782015481526020016008820154815260200160098201548152602001600a8201548152602001600b820160009054906101000a900463ffffffff1663ffffffff1663ffffffff168152602001600b820160049054906101000a900463ffffffff1663ffffffff1663ffffffff168152602001600b820160089054906101000a900473ffffffffffffffffffffffffffffffffffffffff1673ffffffffffffffffffffffffffffffffffffffff1673ffffffffffffffffffffffffffffffffffffffff168152505090508060200151670de0b6b3a7640000826060015181151561177457fe5b04670de0b6b3a7640000836080015181151561178c57fe5b04836101600151846101200151856101400151866101a00151869650975097509750975097509750975050919395979092949650565b6117ca61285d565b6002600360008473ffffffffffffffffffffffffffffffffffffffff1673ffffffffffffffffffffffffffffffffffffffff1681526020019081526020016000205481548110151561181857fe5b90600052602060002090600c02016101c060405190810160405290816000820160009054906101000a900473ffffffffffffffffffffffffffffffffffffffff1673ffffffffffffffffffffffffffffffffffffffff1673ffffffffffffffffffffffffffffffffffffffff168152602001600182018054600181600116156101000203166002900480601f0160208091040260200160405190810160405280929190818152602001828054600181600116156101000203166002900480156119225780601f106118f757610100808354040283529160200191611922565b820191906000526020600020905b81548152906001019060200180831161190557829003601f168201915b505050505081526020016002820160009054906101000a900460ff1615151515815260200160038201548152602001600482015481526020016005820154815260200160068201548152602001600782015481526020016008820154815260200160098201548152602001600a8201548152602001600b820160009054906101000a900463ffffffff1663ffffffff1663ffffffff168152602001600b820160049054906101000a900463ffffffff1663ffffffff1663ffffffff168152602001600b820160089054906101000a900473ffffffffffffffffffffffffffffffffffffffff1673ffffffffffffffffffffffffffffffffffffffff1673ffffffffffffffffffffffffffffffffffffffff1681525050905034816080018181525050806002600360008573ffffffffffffffffffffffffffffffffffffffff1673ffffffffffffffffffffffffffffffffffffffff16815260200190815260200160002054815481101515611a9357fe5b90600052602060002090600c020160008201518160000160006101000a81548173ffffffffffffffffffffffffffffffffffffffff021916908373ffffffffffffffffffffffffffffffffffffffff1602179055506020820151816001019080519060200190611b04929190612907565b5060408201518160020160006101000a81548160ff021916908315150217905550606082015181600301556080820151816004015560a0820151816005015560c0820151816006015560e082015181600701556101008201518160080155610120820151816009015561014082015181600a015561016082015181600b0160006101000a81548163ffffffff021916908363ffffffff16021790555061018082015181600b0160046101000a81548163ffffffff021916908363ffffffff1602179055506101a082015181600b0160086101000a81548173ffffffffffffffffffffffffffffffffffffffff021916908373ffffffffffffffffffffffffffffffffffffffff1602179055509050505050565b611c1f611d74565b1515611c2a57600080fd5b600073ffffffffffffffffffffffffffffffffffffffff166000809054906101000a900473ffffffffffffffffffffffffffffffffffffffff1673ffffffffffffffffffffffffffffffffffffffff167f8be0079c531659141344cd1fd0a4f28419497f9722a3daafe3b4186f6b6457e060405160405180910390a360008060006101000a81548173ffffffffffffffffffffffffffffffffffffffff021916908373ffffffffffffffffffffffffffffffffffffffff160217905550565b6000600282815481101515611cfa57fe5b90600052602060002090600c020160000160009054906101000a900473ffffffffffffffffffffffffffffffffffffffff169050919050565b60036020528060005260406000206000915090505481565b60008060009054906101000a900473ffffffffffffffffffffffffffffffffffffffff16905090565b60008060009054906101000a900473ffffffffffffffffffffffffffffffffffffffff1673ffffffffffffffffffffffffffffffffffffffff163373ffffffffffffffffffffffffffffffffffffffff1614905090565b60003073ffffffffffffffffffffffffffffffffffffffff1631905090565b6000611df4611d74565b1515611dff57600080fd5b6001548211151515611e79576040517f08c379a000000000000000000000000000000000000000000000000000000000815260040180806020018281038252601a8152602001807f596f7520646f6e74206861766520656e6f7567682066756e647300000000000081525060200191505060405180910390fd5b611e81611d4b565b73ffffffffffffffffffffffffffffffffffffffff166108fc839081150290604051600060405180830381858888f19350505050158015611ec6573d6000803e3d6000fd5b508160016000828254039250508190555060019050919050565b6000611eea61285d565b611ef2611d74565b1515611efd57600080fd5b6002600360008673ffffffffffffffffffffffffffffffffffffffff1673ffffffffffffffffffffffffffffffffffffffff16815260200190815260200160002054815481101515611f4b57fe5b90600052602060002090600c02016101c060405190810160405290816000820160009054906101000a900473ffffffffffffffffffffffffffffffffffffffff1673ffffffffffffffffffffffffffffffffffffffff1673ffffffffffffffffffffffffffffffffffffffff168152602001600182018054600181600116156101000203166002900480601f0160208091040260200160405190810160405280929190818152602001828054600181600116156101000203166002900480156120555780601f1061202a57610100808354040283529160200191612055565b820191906000526020600020905b81548152906001019060200180831161203857829003601f168201915b505050505081526020016002820160009054906101000a900460ff1615151515815260200160038201548152602001600482015481526020016005820154815260200160068201548152602001600782015481526020016008820154815260200160098201548152602001600a8201548152602001600b820160009054906101000a900463ffffffff1663ffffffff1663ffffffff168152602001600b820160049054906101000a900463ffffffff1663ffffffff1663ffffffff168152602001600b820160089054906101000a900473ffffffffffffffffffffffffffffffffffffffff1673ffffffffffffffffffffffffffffffffffffffff1673ffffffffffffffffffffffffffffffffffffffff1681525050905082816101a0019073ffffffffffffffffffffffffffffffffffffffff16908173ffffffffffffffffffffffffffffffffffffffff1681525050806002600360008773ffffffffffffffffffffffffffffffffffffffff1673ffffffffffffffffffffffffffffffffffffffff168152602001908152602001600020548154811015156121f557fe5b90600052602060002090600c020160008201518160000160006101000a81548173ffffffffffffffffffffffffffffffffffffffff021916908373ffffffffffffffffffffffffffffffffffffffff1602179055506020820151816001019080519060200190612266929190612907565b5060408201518160020160006101000a81548160ff021916908315150217905550606082015181600301556080820151816004015560a0820151816005015560c0820151816006015560e082015181600701556101008201518160080155610120820151816009015561014082015181600a015561016082015181600b0160006101000a81548163ffffffff021916908363ffffffff16021790555061018082015181600b0160046101000a81548163ffffffff021916908363ffffffff1602179055506101a082015181600b0160086101000a81548173ffffffffffffffffffffffffffffffffffffffff021916908373ffffffffffffffffffffffffffffffffffffffff160217905550905050600191505092915050565b60006002600360008573ffffffffffffffffffffffffffffffffffffffff1673ffffffffffffffffffffffffffffffffffffffff168152602001908152602001600020548154811015156123d057fe5b90600052602060002090600c0201905081816009018190555080600701548160090154111561247d574281600b0160006101000a81548163ffffffff021916908363ffffffff16021790555080600b01600481819054906101000a900463ffffffff168092919060010191906101000a81548163ffffffff021916908363ffffffff1602179055505060018160040160008282540392505081905550600180600082825401925050819055505b806002600360008673ffffffffffffffffffffffffffffffffffffffff1673ffffffffffffffffffffffffffffffffffffffff168152602001908152602001600020548154811015156124cc57fe5b90600052602060002090600c02016000820160009054906101000a900473ffffffffffffffffffffffffffffffffffffffff168160000160006101000a81548173ffffffffffffffffffffffffffffffffffffffff021916908373ffffffffffffffffffffffffffffffffffffffff16021790555060018201816001019080546001816001161561010002031660029004612568929190612987565b506002820160009054906101000a900460ff168160020160006101000a81548160ff02191690831515021790555060038201548160030155600482015481600401556005820154816005015560068201548160060155600782015481600701556008820154816008015560098201548160090155600a82015481600a0155600b820160009054906101000a900463ffffffff1681600b0160006101000a81548163ffffffff021916908363ffffffff160217905550600b820160049054906101000a900463ffffffff1681600b0160046101000a81548163ffffffff021916908363ffffffff160217905550600b820160089054906101000a900473ffffffffffffffffffffffffffffffffffffffff1681600b0160086101000a81548173ffffffffffffffffffffffffffffffffffffffff021916908373ffffffffffffffffffffffffffffffffffffffff1602179055509050507f0c9d3e57848bd705743fa351c08c4f218479e9e193ffa8f0bce3c5d93c6fab1183838360040154600154604051808573ffffffffffffffffffffffffffffffffffffffff1673ffffffffffffffffffffffffffffffffffffffff16815260200184815260200183815260200182815260200194505050505060405180910390a1505050565b61274c611d74565b151561275757600080fd5b61276081612763565b50565b600073ffffffffffffffffffffffffffffffffffffffff168173ffffffffffffffffffffffffffffffffffffffff161415151561279f57600080fd5b8073ffffffffffffffffffffffffffffffffffffffff166000809054906101000a900473ffffffffffffffffffffffffffffffffffffffff1673ffffffffffffffffffffffffffffffffffffffff167f8be0079c531659141344cd1fd0a4f28419497f9722a3daafe3b4186f6b6457e060405160405180910390a3806000806101000a81548173ffffffffffffffffffffffffffffffffffffffff021916908373ffffffffffffffffffffffffffffffffffffffff16021790555050565b6101c060405190810160405280600073ffffffffffffffffffffffffffffffffffffffff168152602001606081526020016000151581526020016000815260200160008152602001600081526020016000815260200160008152602001600081526020016000815260200160008152602001600063ffffffff168152602001600063ffffffff168152602001600073ffffffffffffffffffffffffffffffffffffffff1681525090565b828054600181600116156101000203166002900490600052602060002090601f016020900481019282601f1061294857805160ff1916838001178555612976565b82800160010185558215612976579182015b8281111561297557825182559160200191906001019061295a565b5b5090506129839190612a0e565b5090565b828054600181600116156101000203166002900490600052602060002090601f016020900481019282601f106129c057805485556129fd565b828001600101855582156129fd57600052602060002091601f016020900482015b828111156129fc5782548255916001019190600101906129e1565b5b509050612a0a9190612a0e565b5090565b612a3091905b80821115612a2c576000816000905550600101612a14565b5090565b905600a165627a7a72305820fbeb7f9692641425f1722e8107a2462aeb555de5b6ca2159fe2ad7163dc805f70029",
  "source": "// solium-disable linebreak-style\npragma solidity ^0.4.19;\n\nimport \"../node_modules/openzeppelin-solidity/contracts/ownership/Ownable.sol\";\n\ncontract Contamination is Ownable{\n   \n    uint public totalAmountAvailableForOwner;\n\n    event UpdatedAirPollutionData(\n        address _companyAddress, \n        uint _current, \n        uint currentDeposit, \n        uint totalAmountAvailableForOwner\n    );\n\n    event UpdatedWaterPollutionData(\n        address _companyAddress, \n        uint _current, \n        uint currentDeposit, \n        uint totalAmountAvailableForOwner\n    );\n\n    struct Company{    \n        address companyAddress;\n        string companyName;\n        bool active;\n        uint initialDeposit;\n        uint currentDeposit;\n        uint warningAir;\n        uint warningWater;\n        uint penaltyAir;\n        uint penaltyWater;\n        uint currentAir;\n        uint currentWater;\n        uint32 lastPollutionDate;\n        uint32 totalPollutionAlerts;\n        address sensor;\n    }\n\n    Company[] public companies;\n    mapping (address => uint) public companyToOwner;\n\n    function registerCompany(string _companyName) external payable returns (bool){\n        //require(companyToOwner[msg.sender] == 0, \"Company exists!\");\n        Company memory company;\n        company.companyAddress = msg.sender;\n        company.companyName = _companyName;\n        company.active = false;\n        company.initialDeposit = msg.value;\n        company.currentDeposit = msg.value;\n        company.warningAir = 20;\n        company.warningWater = 20;\n        company.penaltyAir = 30;\n        company.penaltyWater = 30;\n        company.currentAir = 0;\n        company.currentWater = 0;\n        company.totalPollutionAlerts = 0;\n        company.lastPollutionDate = 0;\n\n        uint id = companies.push(company) - 1;\n        companyToOwner[msg.sender] = id;\n\n        return true;\n    }\n\n    function registerSensor(address _companyAddress, address _sensorAddress) external onlyOwner returns (bool){\n        Company memory company = companies[companyToOwner[_companyAddress]];\n        company.sensor = _sensorAddress;\n        companies[companyToOwner[_companyAddress]] = company;\n        return true;\n    }\n\n    function setCurrentDeposit(address _companyAddress) external payable{\n        Company memory company = companies[companyToOwner[_companyAddress]];\n        company.currentDeposit = msg.value;\n        companies[companyToOwner[_companyAddress]] = company;\n    }\n\n    function activateCompany(address _companyAddress, uint amount) external onlyOwner returns(bool){\n        Company memory company = companies[companyToOwner[_companyAddress]];\n        //require(company.currentDeposit >= amount,\"Company dont have enough funds\");\n        company.active = true;\n        companies[companyToOwner[_companyAddress]] = company;\n        return true;\n    }\n    \n    function getCompanyInfo(address _companyAddress) external view returns (string,uint, uint, uint32, uint, uint, address){\n        Company memory company = companies[companyToOwner[_companyAddress]];\n        return (company.companyName, company.initialDeposit/(10**18), company.currentDeposit/(10**18), company.lastPollutionDate, \n        company.currentAir, company.currentWater, company.sensor);\n    }\n\n    function getCompanyAddressById(uint position) external view returns (address) {\n        return companies[position].companyAddress;\n    }\n\n    function getRegisteredCompaniesCount() external view returns (uint) {\n        return companies.length;\n    }\n\n    function setCurrentAirPollution(address _companyAddress, uint _current) external {\n        Company storage company = companies[companyToOwner[_companyAddress]];\n        company.currentAir = _current;\n        if(company.currentAir > company.penaltyAir){\n            company.lastPollutionDate = uint32(now);\n            company.totalPollutionAlerts++;\n            company.currentDeposit -= 1;\n            totalAmountAvailableForOwner += 1;\n        }\n        companies[companyToOwner[_companyAddress]] = company;\n\n        //enviar evento\n        emit UpdatedAirPollutionData(_companyAddress, _current, company.currentDeposit, totalAmountAvailableForOwner);\n    }\n\n    function setCurrentWaterPollution(address _companyAddress, uint _current) external {\n        Company storage company = companies[companyToOwner[_companyAddress]];\n        company.currentWater = _current;\n        if(company.currentWater > company.penaltyWater){\n            company.lastPollutionDate = uint32(now);\n            company.totalPollutionAlerts++;\n            company.currentDeposit -= 1*(10**18);\n            totalAmountAvailableForOwner += 1*(10**18);\n        }\n        companies[companyToOwner[_companyAddress]] = company;\n\n        //enviar evento\n        emit UpdatedWaterPollutionData(_companyAddress, _current, company.currentDeposit, totalAmountAvailableForOwner);\n    }\n\n    function transferFundsToOwner(uint amountToRetrieve) external payable onlyOwner returns (bool) {\n        require(amountToRetrieve <= totalAmountAvailableForOwner,\"You dont have enough funds\");\n        owner().transfer(amountToRetrieve);  \n        totalAmountAvailableForOwner -= amountToRetrieve;\n        return true;\n    } \n\n    function getCurrentBalance() external view returns(uint) {\n        return address(this).balance;\n    }   \n}",
  "sourcePath": "/Users/bruno.sanz.local/Salamancos/contracts/Contamination.sol",
  "compiler": {
    "name": "solc",
    "version": "0.4.24+commit.e67f0147.Emscripten.clang"
  },
  "schemaVersion": "2.0.1",
  "updatedAt": "2018-11-17T09:47:39.527Z"
}