{
  "contractName": "Contamination",
  "abi": [
    {
      "constant": true,
      "inputs": [
        {
          "name": "",
          "type": "uint256"
        }
      ],
      "name": "companies",
      "outputs": [
        {
          "name": "companyName",
          "type": "string"
        },
        {
          "name": "active",
          "type": "bool"
        },
        {
          "name": "initialDeposit",
          "type": "uint256"
        },
        {
          "name": "currentDeposit",
          "type": "uint256"
        },
        {
          "name": "lastPollutionDate",
          "type": "uint32"
        },
        {
          "name": "totalPollutionAlerts",
          "type": "uint32"
        },
        {
          "name": "sensor",
          "type": "address"
        }
      ],
      "payable": false,
      "stateMutability": "view",
      "type": "function"
    },
    {
      "constant": false,
      "inputs": [],
      "name": "renounceOwnership",
      "outputs": [],
      "payable": false,
      "stateMutability": "nonpayable",
      "type": "function"
    },
    {
      "constant": true,
      "inputs": [
        {
          "name": "",
          "type": "address"
        }
      ],
      "name": "companyToOwner",
      "outputs": [
        {
          "name": "",
          "type": "uint256"
        }
      ],
      "payable": false,
      "stateMutability": "view",
      "type": "function"
    },
    {
      "constant": true,
      "inputs": [],
      "name": "owner",
      "outputs": [
        {
          "name": "",
          "type": "address"
        }
      ],
      "payable": false,
      "stateMutability": "view",
      "type": "function"
    },
    {
      "constant": true,
      "inputs": [],
      "name": "isOwner",
      "outputs": [
        {
          "name": "",
          "type": "bool"
        }
      ],
      "payable": false,
      "stateMutability": "view",
      "type": "function"
    },
    {
      "constant": false,
      "inputs": [
        {
          "name": "newOwner",
          "type": "address"
        }
      ],
      "name": "transferOwnership",
      "outputs": [],
      "payable": false,
      "stateMutability": "nonpayable",
      "type": "function"
    },
    {
      "anonymous": false,
      "inputs": [
        {
          "indexed": true,
          "name": "previousOwner",
          "type": "address"
        },
        {
          "indexed": true,
          "name": "newOwner",
          "type": "address"
        }
      ],
      "name": "OwnershipTransferred",
      "type": "event"
    },
    {
      "constant": false,
      "inputs": [
        {
          "name": "_companyName",
          "type": "string"
        }
      ],
      "name": "registerCompany",
      "outputs": [
        {
          "name": "",
          "type": "bool"
        }
      ],
      "payable": true,
      "stateMutability": "payable",
      "type": "function"
    },
    {
      "constant": false,
      "inputs": [
        {
          "name": "_companyAddress",
          "type": "address"
        },
        {
          "name": "_sensorAddress",
          "type": "address"
        }
      ],
      "name": "registerSensor",
      "outputs": [],
      "payable": false,
      "stateMutability": "nonpayable",
      "type": "function"
    },
    {
      "constant": false,
      "inputs": [
        {
          "name": "_companyAddress",
          "type": "address"
        }
      ],
      "name": "setCurrentDeposit",
      "outputs": [],
      "payable": true,
      "stateMutability": "payable",
      "type": "function"
    },
    {
      "constant": false,
      "inputs": [
        {
          "name": "_companyAddress",
          "type": "address"
        },
        {
          "name": "amount",
          "type": "uint256"
        }
      ],
      "name": "activateCompany",
      "outputs": [],
      "payable": false,
      "stateMutability": "nonpayable",
      "type": "function"
    },
    {
      "constant": false,
      "inputs": [
        {
          "name": "_companyAddress",
          "type": "address"
        },
        {
          "name": "_pollutionType",
          "type": "string"
        },
        {
          "name": "_warning",
          "type": "uint256"
        },
        {
          "name": "_penalty",
          "type": "uint256"
        }
      ],
      "name": "setPollutionThreshold",
      "outputs": [],
      "payable": false,
      "stateMutability": "nonpayable",
      "type": "function"
    },
    {
      "constant": true,
      "inputs": [
        {
          "name": "_companyAddress",
          "type": "address"
        }
      ],
      "name": "getCompanyInfo",
      "outputs": [
        {
          "name": "",
          "type": "string"
        },
        {
          "name": "",
          "type": "bool"
        },
        {
          "name": "",
          "type": "address"
        }
      ],
      "payable": false,
      "stateMutability": "view",
      "type": "function"
    },
    {
      "constant": false,
      "inputs": [
        {
          "name": "_companyAddress",
          "type": "address"
        },
        {
          "name": "_pollutionType",
          "type": "string"
        },
        {
          "name": "_current",
          "type": "uint256"
        }
      ],
      "name": "setCurrentPollution",
      "outputs": [],
      "payable": false,
      "stateMutability": "nonpayable",
      "type": "function"
    }
  ],
  "bytecode": "0x6080604052336000806101000a81548173ffffffffffffffffffffffffffffffffffffffff021916908373ffffffffffffffffffffffffffffffffffffffff1602179055506000809054906101000a900473ffffffffffffffffffffffffffffffffffffffff1673ffffffffffffffffffffffffffffffffffffffff16600073ffffffffffffffffffffffffffffffffffffffff167f8be0079c531659141344cd1fd0a4f28419497f9722a3daafe3b4186f6b6457e060405160405180910390a3612031806100cf6000396000f3006080604052600436106100c4576000357c0100000000000000000000000000000000000000000000000000000000900463ffffffff168062544194146100c9578063076c31981461010f5780632813d19d1461017e5780632f0a54091461029657806342e12c83146102e35780636ab8bf1a146103dd578063715018a6146104135780637f0605d41461042a5780638da5cb5b146104815780638f32d59b146104d8578063cd3d3fa414610507578063ec7aed4a1461056a578063f2fde38b146105cf575b600080fd5b6100f5600480360381019080803590602001908201803590602001919091929391929390505050610612565b604051808215151515815260200191505060405180910390f35b34801561011b57600080fd5b5061017c600480360381019080803573ffffffffffffffffffffffffffffffffffffffff16906020019092919080359060200190820180359060200191909192939192939080359060200190929190803590602001909291905050506108a0565b005b34801561018a57600080fd5b506101a960048036038101908080359060200190929190505050610b11565b6040518080602001881515151581526020018781526020018681526020018563ffffffff1663ffffffff1681526020018463ffffffff1663ffffffff1681526020018373ffffffffffffffffffffffffffffffffffffffff1673ffffffffffffffffffffffffffffffffffffffff168152602001828103825289818151815260200191508051906020019080838360005b8381101561025557808201518184015260208101905061023a565b50505050905090810190601f1680156102825780820380516001836020036101000a031916815260200191505b509850505050505050505060405180910390f35b3480156102a257600080fd5b506102e1600480360381019080803573ffffffffffffffffffffffffffffffffffffffff16906020019092919080359060200190929190505050610c47565b005b3480156102ef57600080fd5b50610324600480360381019080803573ffffffffffffffffffffffffffffffffffffffff169060200190929190505050611017565b6040518080602001841515151581526020018373ffffffffffffffffffffffffffffffffffffffff1673ffffffffffffffffffffffffffffffffffffffff168152602001828103825285818151815260200191508051906020019080838360005b838110156103a0578082015181840152602081019050610385565b50505050905090810190601f1680156103cd5780820380516001836020036101000a031916815260200191505b5094505050505060405180910390f35b610411600480360381019080803573ffffffffffffffffffffffffffffffffffffffff169060200190929190505050611221565b005b34801561041f57600080fd5b5061042861155a565b005b34801561043657600080fd5b5061046b600480360381019080803573ffffffffffffffffffffffffffffffffffffffff16906020019092919050505061162c565b6040518082815260200191505060405180910390f35b34801561048d57600080fd5b50610496611644565b604051808273ffffffffffffffffffffffffffffffffffffffff1673ffffffffffffffffffffffffffffffffffffffff16815260200191505060405180910390f35b3480156104e457600080fd5b506104ed61166d565b604051808215151515815260200191505060405180910390f35b34801561051357600080fd5b50610568600480360381019080803573ffffffffffffffffffffffffffffffffffffffff169060200190929190803573ffffffffffffffffffffffffffffffffffffffff1690602001909291905050506116c4565b005b34801561057657600080fd5b506105cd600480360381019080803573ffffffffffffffffffffffffffffffffffffffff16906020019092919080359060200190820180359060200191909192939192939080359060200190929190505050611a3f565b005b3480156105db57600080fd5b50610610600480360381019080803573ffffffffffffffffffffffffffffffffffffffff169060200190929190505050611d5e565b005b600061061c611e77565b600080600360003373ffffffffffffffffffffffffffffffffffffffff1673ffffffffffffffffffffffffffffffffffffffff16815260200190815260200160002054141515156106d5576040517f08c379a000000000000000000000000000000000000000000000000000000000815260040180806020018281038252600f8152602001807f436f6d70616e792065786973747321000000000000000000000000000000000081525060200191505060405180910390fd5b84848080601f0160208091040260200160405190810160405280939291908181526020018383808284378201915050505050508260000181905250600082602001901515908115158152505034826040018181525050348260600181815250506001600283908060018154018082558091505090600182039060005260206000209060080201600090919290919091506000820151816000019080519060200190610781929190611ed9565b5060208201518160010160006101000a81548160ff021916908315150217905550604082015181600201556060820151816003015560808201518160070160006101000a81548163ffffffff021916908363ffffffff16021790555060a08201518160070160046101000a81548163ffffffff021916908363ffffffff16021790555060c08201518160070160086101000a81548173ffffffffffffffffffffffffffffffffffffffff021916908373ffffffffffffffffffffffffffffffffffffffff160217905550505003905080600360003373ffffffffffffffffffffffffffffffffffffffff1673ffffffffffffffffffffffffffffffffffffffff1681526020019081526020016000208190555060019250505092915050565b60006108aa61166d565b15156108b557600080fd5b6002600360008873ffffffffffffffffffffffffffffffffffffffff1673ffffffffffffffffffffffffffffffffffffffff1681526020019081526020016000205481548110151561090357fe5b9060005260206000209060080201905082816004018686604051808383808284378201915050925050509081526020016040518091039020819055508181600501868660405180838380828437820191505092505050908152602001604051809103902081905550806002600360008973ffffffffffffffffffffffffffffffffffffffff1673ffffffffffffffffffffffffffffffffffffffff168152602001908152602001600020548154811015156109ba57fe5b9060005260206000209060080201600082018160000190805460018160011615610100020316600290046109ef929190611f59565b506001820160009054906101000a900460ff168160010160006101000a81548160ff02191690831515021790555060028201548160020155600382015481600301556007820160009054906101000a900463ffffffff168160070160006101000a81548163ffffffff021916908363ffffffff1602179055506007820160049054906101000a900463ffffffff168160070160046101000a81548163ffffffff021916908363ffffffff1602179055506007820160089054906101000a900473ffffffffffffffffffffffffffffffffffffffff168160070160086101000a81548173ffffffffffffffffffffffffffffffffffffffff021916908373ffffffffffffffffffffffffffffffffffffffff160217905550905050505050505050565b600281815481101515610b2057fe5b9060005260206000209060080201600091509050806000018054600181600116156101000203166002900480601f016020809104026020016040519081016040528092919081815260200182805460018160011615610100020316600290048015610bcc5780601f10610ba157610100808354040283529160200191610bcc565b820191906000526020600020905b815481529060010190602001808311610baf57829003601f168201915b5050505050908060010160009054906101000a900460ff16908060020154908060030154908060070160009054906101000a900463ffffffff16908060070160049054906101000a900463ffffffff16908060070160089054906101000a900473ffffffffffffffffffffffffffffffffffffffff16905087565b610c4f611e77565b610c5761166d565b1515610c6257600080fd5b6002600360008573ffffffffffffffffffffffffffffffffffffffff1673ffffffffffffffffffffffffffffffffffffffff16815260200190815260200160002054815481101515610cb057fe5b906000526020600020906008020160e06040519081016040529081600082018054600181600116156101000203166002900480601f016020809104026020016040519081016040528092919081815260200182805460018160011615610100020316600290048015610d635780601f10610d3857610100808354040283529160200191610d63565b820191906000526020600020905b815481529060010190602001808311610d4657829003601f168201915b505050505081526020016001820160009054906101000a900460ff1615151515815260200160028201548152602001600382015481526020016007820160009054906101000a900463ffffffff1663ffffffff1663ffffffff1681526020016007820160049054906101000a900463ffffffff1663ffffffff1663ffffffff1681526020016007820160089054906101000a900473ffffffffffffffffffffffffffffffffffffffff1673ffffffffffffffffffffffffffffffffffffffff1673ffffffffffffffffffffffffffffffffffffffff1681525050905081816060015110151515610ebb576040517f08c379a000000000000000000000000000000000000000000000000000000000815260040180806020018281038252601e8152602001807f436f6d70616e7920646f6e74206861766520656e6f7567682066756e6473000081525060200191505060405180910390fd5b6001816020019015159081151581525050806002600360008673ffffffffffffffffffffffffffffffffffffffff1673ffffffffffffffffffffffffffffffffffffffff16815260200190815260200160002054815481101515610f1b57fe5b90600052602060002090600802016000820151816000019080519060200190610f45929190611ed9565b5060208201518160010160006101000a81548160ff021916908315150217905550604082015181600201556060820151816003015560808201518160070160006101000a81548163ffffffff021916908363ffffffff16021790555060a08201518160070160046101000a81548163ffffffff021916908363ffffffff16021790555060c08201518160070160086101000a81548173ffffffffffffffffffffffffffffffffffffffff021916908373ffffffffffffffffffffffffffffffffffffffff160217905550905050505050565b6060600080611024611e77565b6002600360008773ffffffffffffffffffffffffffffffffffffffff1673ffffffffffffffffffffffffffffffffffffffff1681526020019081526020016000205481548110151561107257fe5b906000526020600020906008020160e06040519081016040529081600082018054600181600116156101000203166002900480601f0160208091040260200160405190810160405280929190818152602001828054600181600116156101000203166002900480156111255780601f106110fa57610100808354040283529160200191611125565b820191906000526020600020905b81548152906001019060200180831161110857829003601f168201915b505050505081526020016001820160009054906101000a900460ff1615151515815260200160028201548152602001600382015481526020016007820160009054906101000a900463ffffffff1663ffffffff1663ffffffff1681526020016007820160049054906101000a900463ffffffff1663ffffffff1663ffffffff1681526020016007820160089054906101000a900473ffffffffffffffffffffffffffffffffffffffff1673ffffffffffffffffffffffffffffffffffffffff1673ffffffffffffffffffffffffffffffffffffffff16815250509050806000015181602001518260c00151829250935093509350509193909250565b611229611e77565b6002600360008473ffffffffffffffffffffffffffffffffffffffff1673ffffffffffffffffffffffffffffffffffffffff1681526020019081526020016000205481548110151561127757fe5b906000526020600020906008020160e06040519081016040529081600082018054600181600116156101000203166002900480601f01602080910402602001604051908101604052809291908181526020018280546001816001161561010002031660029004801561132a5780601f106112ff5761010080835404028352916020019161132a565b820191906000526020600020905b81548152906001019060200180831161130d57829003601f168201915b505050505081526020016001820160009054906101000a900460ff1615151515815260200160028201548152602001600382015481526020016007820160009054906101000a900463ffffffff1663ffffffff1663ffffffff1681526020016007820160049054906101000a900463ffffffff1663ffffffff1663ffffffff1681526020016007820160089054906101000a900473ffffffffffffffffffffffffffffffffffffffff1673ffffffffffffffffffffffffffffffffffffffff1673ffffffffffffffffffffffffffffffffffffffff1681525050905034816060018181525050806002600360008573ffffffffffffffffffffffffffffffffffffffff1673ffffffffffffffffffffffffffffffffffffffff1681526020019081526020016000205481548110151561145f57fe5b90600052602060002090600802016000820151816000019080519060200190611489929190611ed9565b5060208201518160010160006101000a81548160ff021916908315150217905550604082015181600201556060820151816003015560808201518160070160006101000a81548163ffffffff021916908363ffffffff16021790555060a08201518160070160046101000a81548163ffffffff021916908363ffffffff16021790555060c08201518160070160086101000a81548173ffffffffffffffffffffffffffffffffffffffff021916908373ffffffffffffffffffffffffffffffffffffffff1602179055509050505050565b61156261166d565b151561156d57600080fd5b600073ffffffffffffffffffffffffffffffffffffffff166000809054906101000a900473ffffffffffffffffffffffffffffffffffffffff1673ffffffffffffffffffffffffffffffffffffffff167f8be0079c531659141344cd1fd0a4f28419497f9722a3daafe3b4186f6b6457e060405160405180910390a360008060006101000a81548173ffffffffffffffffffffffffffffffffffffffff021916908373ffffffffffffffffffffffffffffffffffffffff160217905550565b60036020528060005260406000206000915090505481565b60008060009054906101000a900473ffffffffffffffffffffffffffffffffffffffff16905090565b60008060009054906101000a900473ffffffffffffffffffffffffffffffffffffffff1673ffffffffffffffffffffffffffffffffffffffff163373ffffffffffffffffffffffffffffffffffffffff1614905090565b6116cc611e77565b6116d461166d565b15156116df57600080fd5b6002600360008573ffffffffffffffffffffffffffffffffffffffff1673ffffffffffffffffffffffffffffffffffffffff1681526020019081526020016000205481548110151561172d57fe5b906000526020600020906008020160e06040519081016040529081600082018054600181600116156101000203166002900480601f0160208091040260200160405190810160405280929190818152602001828054600181600116156101000203166002900480156117e05780601f106117b5576101008083540402835291602001916117e0565b820191906000526020600020905b8154815290600101906020018083116117c357829003601f168201915b505050505081526020016001820160009054906101000a900460ff1615151515815260200160028201548152602001600382015481526020016007820160009054906101000a900463ffffffff1663ffffffff1663ffffffff1681526020016007820160049054906101000a900463ffffffff1663ffffffff1663ffffffff1681526020016007820160089054906101000a900473ffffffffffffffffffffffffffffffffffffffff1673ffffffffffffffffffffffffffffffffffffffff1673ffffffffffffffffffffffffffffffffffffffff16815250509050818160c0019073ffffffffffffffffffffffffffffffffffffffff16908173ffffffffffffffffffffffffffffffffffffffff1681525050806002600360008673ffffffffffffffffffffffffffffffffffffffff1673ffffffffffffffffffffffffffffffffffffffff1681526020019081526020016000205481548110151561194357fe5b9060005260206000209060080201600082015181600001908051906020019061196d929190611ed9565b5060208201518160010160006101000a81548160ff021916908315150217905550604082015181600201556060820151816003015560808201518160070160006101000a81548163ffffffff021916908363ffffffff16021790555060a08201518160070160046101000a81548163ffffffff021916908363ffffffff16021790555060c08201518160070160086101000a81548173ffffffffffffffffffffffffffffffffffffffff021916908373ffffffffffffffffffffffffffffffffffffffff160217905550905050505050565b6000806002600360008873ffffffffffffffffffffffffffffffffffffffff1673ffffffffffffffffffffffffffffffffffffffff16815260200190815260200160002054815481101515611a9057fe5b906000526020600020906008020191508282600601868660405180838380828437820191505092505050908152602001604051809103902081905550428260070160006101000a81548163ffffffff021916908363ffffffff16021790555081600701600481819054906101000a900463ffffffff168092919060010191906101000a81548163ffffffff021916908363ffffffff1602179055505081600501858560405180838380828437820191505092505050908152602001604051809103902054826006018686604051808383808284378201915050925050509081526020016040518091039020541115611bb85760648260020154811515611b9257fe5b049050808260030160008282540392505081905550806001600082825401925050819055505b816002600360008973ffffffffffffffffffffffffffffffffffffffff1673ffffffffffffffffffffffffffffffffffffffff16815260200190815260200160002054815481101515611c0757fe5b906000526020600020906008020160008201816000019080546001816001161561010002031660029004611c3c929190611f59565b506001820160009054906101000a900460ff168160010160006101000a81548160ff02191690831515021790555060028201548160020155600382015481600301556007820160009054906101000a900463ffffffff168160070160006101000a81548163ffffffff021916908363ffffffff1602179055506007820160049054906101000a900463ffffffff168160070160046101000a81548163ffffffff021916908363ffffffff1602179055506007820160089054906101000a900473ffffffffffffffffffffffffffffffffffffffff168160070160086101000a81548173ffffffffffffffffffffffffffffffffffffffff021916908373ffffffffffffffffffffffffffffffffffffffff160217905550905050505050505050565b611d6661166d565b1515611d7157600080fd5b611d7a81611d7d565b50565b600073ffffffffffffffffffffffffffffffffffffffff168173ffffffffffffffffffffffffffffffffffffffff1614151515611db957600080fd5b8073ffffffffffffffffffffffffffffffffffffffff166000809054906101000a900473ffffffffffffffffffffffffffffffffffffffff1673ffffffffffffffffffffffffffffffffffffffff167f8be0079c531659141344cd1fd0a4f28419497f9722a3daafe3b4186f6b6457e060405160405180910390a3806000806101000a81548173ffffffffffffffffffffffffffffffffffffffff021916908373ffffffffffffffffffffffffffffffffffffffff16021790555050565b60e060405190810160405280606081526020016000151581526020016000815260200160008152602001600063ffffffff168152602001600063ffffffff168152602001600073ffffffffffffffffffffffffffffffffffffffff1681525090565b828054600181600116156101000203166002900490600052602060002090601f016020900481019282601f10611f1a57805160ff1916838001178555611f48565b82800160010185558215611f48579182015b82811115611f47578251825591602001919060010190611f2c565b5b509050611f559190611fe0565b5090565b828054600181600116156101000203166002900490600052602060002090601f016020900481019282601f10611f925780548555611fcf565b82800160010185558215611fcf57600052602060002091601f016020900482015b82811115611fce578254825591600101919060010190611fb3565b5b509050611fdc9190611fe0565b5090565b61200291905b80821115611ffe576000816000905550600101611fe6565b5090565b905600a165627a7a72305820ccd66dbf542afc8ae50faeb90d82d519f949e8fed78928152386275bccad68d20029",
  "source": "// solium-disable linebreak-style\r\npragma solidity ^0.4.19;\r\n\r\nimport \"../node_modules/openzeppelin-solidity/contracts/ownership/Ownable.sol\";\r\n\r\ncontract Contamination is Ownable{\r\n   \r\n    uint totalEthereumForOwner;\r\n\r\n    struct Company{    \r\n        string companyName;\r\n        bool active;\r\n        uint initialDeposit;\r\n        uint currentDeposit;\r\n        mapping(string => uint) warning;\r\n        mapping(string => uint) penalty;\r\n        mapping(string => uint) current;\r\n        uint32 lastPollutionDate;\r\n        uint32 totalPollutionAlerts;\r\n        address sensor;\r\n    }\r\n\r\n    Company[] public companies;\r\n    mapping (address => uint) public companyToOwner;\r\n\r\n    function registerCompany(string _companyName) external payable returns (bool){\r\n        require(companyToOwner[msg.sender] != 0, \"Company exists!\");\r\n        Company memory company;\r\n        company.companyName = _companyName;\r\n        company.active = false;\r\n        company.initialDeposit = msg.value;\r\n        company.currentDeposit = msg.value;\r\n\r\n        uint id = companies.push(company) - 1;\r\n        companyToOwner[msg.sender] = id;\r\n\r\n        return true;\r\n    }\r\n\r\n    function registerSensor(address _companyAddress, address _sensorAddress) external onlyOwner{\r\n        Company memory company = companies[companyToOwner[_companyAddress]];\r\n        company.sensor = _sensorAddress;\r\n        companies[companyToOwner[_companyAddress]] = company;\r\n    }\r\n\r\n    function setCurrentDeposit(address _companyAddress) external payable{\r\n        Company memory company = companies[companyToOwner[_companyAddress]];\r\n        company.currentDeposit = msg.value;\r\n        companies[companyToOwner[_companyAddress]] = company;\r\n    }\r\n\r\n    function activateCompany(address _companyAddress, uint amount) external onlyOwner{\r\n        Company memory company = companies[companyToOwner[_companyAddress]];\r\n        require(company.currentDeposit >= amount,\"Company dont have enough funds\");\r\n        company.active = true;\r\n        companies[companyToOwner[_companyAddress]] = company;\r\n    }\r\n\r\n    function setPollutionThreshold(address _companyAddress, string _pollutionType, uint _warning, uint _penalty) external onlyOwner{\r\n        Company storage company = companies[companyToOwner[_companyAddress]];\r\n        company.warning[_pollutionType] = _warning;\r\n        company.penalty[_pollutionType] = _penalty;\r\n        companies[companyToOwner[_companyAddress]] = company;//Verificar si es necesario\r\n    }\r\n    \r\n    function getCompanyInfo(address _companyAddress) external view returns (string,bool,address){\r\n        Company memory company = companies[companyToOwner[_companyAddress]];\r\n        return (company.companyName, company.active, company.sensor);\r\n    }\r\n\r\n    function setCurrentPollution(address _companyAddress, string _pollutionType, uint _current) external {\r\n        Company storage company = companies[companyToOwner[_companyAddress]];\r\n        company.current[_pollutionType] = _current;\r\n        company.lastPollutionDate = uint32(now);\r\n        company.totalPollutionAlerts++;\r\n        if(company.current[_pollutionType] > company.penalty[_pollutionType]){\r\n            uint penalty = company.initialDeposit/100;// (company.current[_pollutionType] / company.penalty[_pollutionType])**company.totalPollutionAlerts;\r\n            company.currentDeposit -= penalty;\r\n            totalEthereumForOwner += penalty;\r\n        }\r\n\r\n        companies[companyToOwner[_companyAddress]] = company;\r\n\r\n\r\n        //enviar evento\r\n    }\r\n\r\n}",
  "sourcePath": "C:\\Users\\pablo.covarrubias.BABEL-SI\\hackathonBabelBlockchain\\Salamancos\\contracts\\Contamination.sol",
  "compiler": {
    "name": "solc",
    "version": "0.4.24+commit.e67f0147.Emscripten.clang"
  },
  "schemaVersion": "2.0.1",
  "updatedAt": "2018-11-17T01:36:45.399Z"
}